:020000040000FA
:060000000A128A110E280D
:10000800FE00030EF2000408F3000A08F4000A12C6
:100018008A112C280A128A11112883133030FD0006
:100028000130FE001C30FF00203084000A128A11C3
:100038000D210A128A110A128A113C210A128A1108
:10004800FA00F501F601F70183010A128A11DF2887
:100058000B1D2F2830285E2864308312031381007B
:100068004D2889017808203E840083130008870002
:1000780009140230F0007008FA005D288901790837
:10008800203E84008313000887008914FA01FA0AC5
:100098005D287A08F000F1017108003A0319552823
:1000A8005D287008013A03193528033A03194228D4
:1000B8005D280B11831203130C1F63286428722810
:1000C8001F0CF000700C0F39083A031D6C286D28BE
:1000D80071281E08F0007008F5000C130B1C752819
:1000E80076289728061879287A287D28F701F70AAC
:1000F80087287703031D812882288728F701013084
:10010800F0007008850786188A288B288E28F60143
:10011800F60A96287603031D922893289628F60156
:10012800013085020B1074088A0073088400720E6F
:100138008300FE0E7E0E090083160317880108301F
:10014800890083160313850103308600870189011E
:10015800831203138501860187018901831603131E
:100168000F140F178F160F120330960003309500E7
:10017800831203131F141F08C33920389F001F0858
:100188003F3940389F00831603139F131F129F1295
:100198000530810064308312031381008B170B171D
:1001A8008B168B150B110B10831603130C17831268
:1001B80003130C1308000A128A11A0200A128A11CC
:1001C800831203139F147508B500B6013508B000F3
:1001D8003608B1000A128A112C210A128A1120301D
:1001E80083120313B500B50BF728000075088312B6
:1001F80003130506031D0129022904298615E4288D
:100208008611E4280A128A110E287E088A007F08BF
:1002180082000A128A1109210A128A118000840AAE
:1002280004087D0603190034FF0A0319FE0A0D2984
:100238003F3406345B344F3466346D347D340734D0
:100248007F34673477347C3439345E3479347134AC
:1002580075080F3983120313B2003208F9007508C4
:10026800F039B2003208F800F80E0F30F80508002F
:0202780001344F
:04400E00D420FF3F7C
:00000001FF
