:020000040000FA
:060000000A128A110C280F
:10000800FE00030EF7000A08F8000A128A112728D2
:100018000A128A110F2883133030FD000030FE00C9
:10002800C730FF00203084000A128A11B8200A1253
:100038008A11F001F101F201F301F401F5018301E4
:100048000A128A11E5280B1D2A282B2830280B11A3
:100058006430831203138100831203130C1F3528A5
:10006800362847281F0CF600760C0F39083A031D6E
:100078003E283F2842281E08870046281E08F6000A
:100088007608F2000C130B1C4A284B286C2806181B
:100098004E284F285228F401F40A5C287403031DE3
:1000A800562857285C28F4010130F60076088507A1
:1000B80086185F2860286328F301F30A6B28730306
:1000C800031D672868286B28F301013085020B108F
:1000D80078088A00770E8300FE0E7E0E09008316CC
:1000E800031788010830890083160313850103303C
:1000F8008600870189018312031385018601870120
:100108008901831603130F140F178F160F1203306C
:10011800960003309500831203131F141F08C33978
:1001280020389F001F083F3940389F00831603136B
:100138009F131F129F12053081006430831203132E
:1001480081008B170B178B168B150B110B10831651
:1001580003130C17831203130C13200887000800DD
:100168007E088A007F0882000A128A11B4200A12C7
:100178008A118000840A04087D0603190034FF0AE6
:100188000319FE0AB8283F3406345B344F3466340A
:100198006D347D3407347F34673477347C343934B4
:1001A8005E34793471347208F039F9007908F00056
:1001B80072080F39F9007908F100F00E0F30F005D8
:1001C80008000A128A1173200A128A118312031373
:0A01D8009F14EA280A128A110C286D
:04400E00D420FF3F7C
:00000001FF
