:020000040000FA
:060000000A128A110C280F
:10000800FE00030EF9000A08FA000A128A112F28C6
:100018000A128A110F280A128A118E200A128A11CE
:10002800F4000A128A118F200A128A11F5000A12A6
:100038008A1190200A128A11F6000A128A11912058
:100048000A128A11F700F001F101F201F3018301AC
:100058000A128A1185280B1C322833285628831245
:1000680003130618382839283C28F201F20A4628D2
:100078007203031D402841284628F2010130F80088
:1000880078088507861849284A284D28F101F10A79
:1000980055287103031D512852285528F1010130B4
:1000A80085020B107A088A00790E8300FE0E7E0EF8
:1000B8000900831603178801890183160313850134
:1000C80003308600870188018901831203138501A3
:1000D800860187018801890103308316031396007E
:1000E80003309500053081006430831203138100CA
:1000F8008B170B178B168B150B110B1077088800B5
:1001080008000A128A115D200A128A118A280A1226
:0C0118008A110C283F3406345B344F344D
:04400E00D420FF3F7C
:00000001FF
