:020000040000FA
:060000000A128A11F92F1B
:100CA2000A128A116D260A128A118316031311146D
:100CB20008000A128A116D260A128A11831603137A
:100CC200111508000A128A116D260A128A1170087B
:100CD2008312031393000800831603131419722E50
:100CE200732E6D2E11081F39031D782E792E6D2E4D
:100CF20008008316031789018316031385018601F1
:100D02008312031385018601870188018316031369
:100D12000F140F178F160F12003083120313A30044
:100D22000130A2008630A100A030A0000A128A1170
:100D3200CB260A128A1108000A128A116D260A129B
:100D42008A118316031391150A128A116D260A124B
:100D52008A11831203131308F200F3017208F400DC
:100D62007308F5000A128A116D260A128A1170039D
:100D72007104031DBD2EBE2EC22E831603139112C3
:100D8200C52E83160313911611167508F100740807
:100D9200F000080028308312031394008316031313
:100DA2009101831203132008A4002108A500220840
:100DB200A6002308A70002300310A40DA50DA60D5E
:100DC200A70DFF3E031DDD2E2708F3002608F200C3
:100DD2002508F1002408F0000030F7003D30F6004D
:100DE2000930F5000030F4000A128A1103270A12B2
:100DF2008A117008FF3E831603139300940187152E
:100E0200071608000030FC000030FB000030FA003A
:100E12000030F90073087204710470040319122F70
:100E2200132F602FFD01FD0A232F0130F80003105C
:100E3200F00DF10DF20DF30DF80B182F0130F80043
:100E42007808FD07F31F262F272F162F0130F800F1
:100E52000310F90DFA0DFB0DFC0DF80B292F730889
:100E62007702031D3E2F72087602031D3E2F710882
:100E72007502031D3E2F70087402031C412F422F7E
:100E8200512F7008F4027108031C710FF5027208E9
:100E9200031C720FF6027308031C730FF702791416
:100EA20001300310F30CF20CF10CF00CFF3E031DA9
:100EB200522F0130FD02031D5F2F602F272F7C0868
:100EC200F3007B08F2007A08F1007908F0000800CC
:100ED2000A128A117A260A128A110A128A115126D4
:100EE2000A128A115130F0000030F1000A128A1100
:100EF20063260A128A110030F000F1000A128A11E8
:100F02009D260A128A1170088312031386000A12A0
:100F12008A115A260A128A11023083120313AA0076
:100F22000430A900B930A800A80B952FA90B952F62
:100F3200AA0B952F9C2F0A128A1151260A128A1186
:100F42008030F0000030F1000A128A1163260A1282
:100F52008A11F330F0000030F1000A128A11632680
:100F62000A128A110A128A115A260A128A110230A8
:100F720083120313AA000430A900B930A800A80BF9
:100F8200C02FA90BC02FAA0BC02FC72F0A128A117C
:100F920051260A128A118130F0000030F1000A1243
:100FA2008A1163260A128A110030F000F1000A1237
:100FB2008A119D260A128A11700883120313850072
:100FC2000A128A115A260A128A1102308312031354
:100FD200AA000430A900B930A800A80BEE2FA90B73
:100FE200EE2FAA0BEE2FF52F6E2F0A128A11002870
:0E0FF20083120313AB0183010A128A11692FC7
:04400E00D420FF3F7C
:00000001FF
