:020000040000FA
:100000000A128A11EA2FF7007703031D082809282E
:100010002C2874087F3EF5007508FA007A08F50070
:1000200004300310F50CFF3E031D11287508F6007F
:100030007608F8007A080F39F5007508F900780895
:100040000A128A1596220A128A1179080A128A154A
:1000500096220A128A11542802307706031D31288D
:10006000322854287408BF3EF5007508FA007A0853
:10007000F50004300310F50CFF3E031D3A28750807
:10008000F6007608F8007A080F39F5007508F900CF
:1000900078080A128A1596220A128A1179080A1219
:1000A0008A1596220A128A1108000A128A15D2228B
:1000B0000A128A110A128A15DE230A128A110A12FA
:1000C0008A1574220A128A11F401F40A01300A1204
:1000D0008A1103200A128A1101300A128A15F522A8
:1000E0000A128A11203083120313E000E00B7628F5
:1000F00000000A128A154B220A128A116130F000A0
:100100000030F1000A128A155D220A128A110030AD
:10011000F000F1000A128A1541230A128A117008B0
:1001200083120313E0006008E5000A128A155422C6
:100130000A128A11023083120313E2000430E10034
:10014000B930E000E00BA228E10BA228E20BA228C4
:10015000A9280A128A154B220A128A115130F0007E
:100160000030F1000A128A155D220A128A1100304D
:10017000F000F1000A128A1541230A128A11700850
:1001800083120313E0006008E8000A128A15542263
:100190000A128A11023083120313E2000430E100D4
:1001A000B930E000E00BD228E10BD228E20BD228D4
:1001B000D9280A128A154B220A128A118030F000BF
:1001C0000030F1000A128A155D220A128A11F330FA
:1001D000F0000030F1000A128A155D220A128A111D
:1001E0000A128A1554220A128A110230831203134A
:1001F000E2000430E100B930E000E00BFD28E10B43
:10020000FD28E20BFD2804290A128A154B220A1246
:100210008A118130F0000030F1000A128A155D2247
:100220000A128A110030F000F1000A128A154123E7
:100230000A128A11700883120313E0006008E700B5
:100240000A128A1554220A128A11023083120313E9
:10025000E2000430E100B930E000E00B2D29E10BB1
:100260002D29E20B2D2934298312031368080A1261
:100270008A15E7250A128A11F401F40A02300A12DB
:100280008A1103200A128A118312031369080A12C1
:100290008A156F230A128A1117300A128A15F5225D
:1002A0000A128A11831203136A080A128A156F232D
:1002B0000A128A11831203136B080A128A156F231C
:1002C0000A128A1111300A128A15F5220A128A11AD
:1002D000023083120313E2000430E100B930E00081
:1002E000E00B7029E10B7029E20B702977290830A7
:1002F00083120313E0006008F40002300A128A112E
:1003000003200A128A118312031365080A128A1540
:100310003B240A128A11831203136A080A128A15EF
:100320006F230A128A11093083120313E000600858
:10033000F40002300A128A1103200A128A11831271
:1003400003136B080A128A156F230A128A110D30E3
:1003500083120313E0006008F40002300A128A11CD
:1003600003200A128A118312031367080A128A15DE
:100370008D260A128A118312031369080A128A153C
:100380006F230A128A11831203136A080A128A154C
:100390006F230A128A11831203136B080A128A153B
:1003A0006F230A128A1114300A128A15F5220A12D2
:1003B0008A11023083120313E2000430E100B930E5
:1003C000E000E00BE129E10BE129E20BE129E8295A
:1003D00083120313680886006708850002308312C1
:1003E0000313E2000430E100B930E000E00BF6292D
:1003F000E10BF629E20BF629FD2979280A128A1168
:100400000028831203133D088039C2004208CA0045
:100410003D08C2004207C3004308CC00BC1F112A9C
:10042000122A132A4C144C080319172A182A282AAE
:100430004C0A031D1C2A1D2A252A0030BD0000304D
:10044000BC000030BB000030BA00BC17BD01302A30
:100450000030BD000030BC000030BB000030BA00EE
:1004600041088039C2004208CB004B084A060319F4
:100470003A2A3B2A3C2A4A174108C2004207C300D5
:100480004308CB00C01F452A462A472A4B144B0875
:1004900003194B2A4C2A5C2A4B0A031D502A512A65
:1004A000592A0030C1000030C0000030BF000030C9
:1004B000BE00C017C101642A0030C1000030C00076
:1004C0000030BF000030BE004C084B020318692A00
:1004D0006A2AAE2A4A1F6D2A6E2A722A8030C2000A
:1004E0004208CA064C08C2004208CD004B08C200B0
:1004F0004208CC004D08C2004208CB003A08C200B6
:100500004208CD003E08C2004208BA004D08C200B1
:100510004208BE003B08C2004208CD003F08C200AE
:100520004208BB004D08C2004208BF003C08C200A0
:100530004208CD004008C2004208BC004D08C2007D
:100540004208C0003D08C2004208CD004108C20078
:100550004208BD004D08C2004208C100CD014B0851
:10056000C200C3014308C5004C084202C400031C7A
:10057000C5034508803AFF0080307F02031DC22A70
:100580001A304402031CC52AC62A032B8312031304
:100590003D083C043B043A04031DCF2AD12A013014
:1005A000D22A0030C2004208CD000030BD00003029
:1005B000BC000030BB000030BA004B08C20042084B
:1005C000CC000B2B4D1CE52AE62AEF2A4D08C20071
:1005D0000310420C0138C3004308CD00F12A031078
:1005E000CD0C3A1CF42AF52AF62ACD170130C200A8
:1005F0003D0DBD0CBC0CBB0CBA0CC20BF82A013073
:10060000C2004208CC07831203134B084C02031CA0
:100610000A2B0B2BE22A4A1B0E2B0F2B5A2B4C08B2
:10062000031D132B142B1D2B0030BD000030BC000C
:100630000030BB000030BA00882C3E08BA073F08E3
:1006400003110318013E0319262BBB0740080311B1
:100650000318013E03192D2BBC0741080311031891
:10066000013E0319342BBD073D1C372B382B0E2CB4
:100670004D1C3B2B3C2B452B4D08C2000310420C5C
:100680000138C3004308CD00472B0310CD0C3A1CA2
:100690004A2B4B2B4C2BCD170130C2003D0DBD0C0E
:1006A000BC0CBB0CBA0CC20B4E2B0130C200420872
:1006B000CC070E2C3D08803AFF004108803A7F02AB
:1006C000031D6C2B40083C02031D6C2B3F083B02B2
:1006D000031D6C2B3E083A0203186F2B702BC82B9E
:1006E000FF30C200FF30C300FF30C400FF30C50040
:1006F0003E08C6003F08C7004008C8004108C900BE
:100700003A08C6023B08031C3B0F872B882BC70205
:100710003C08031C3C0F8D2B8E2BC8023D08031C8C
:100720003D0F932B942BC9024608C20747080318B4
:10073000470F9B2B9C2BC30748080318480FA12B7E
:10074000A22BC40749080318490AC5074508BD007C
:100750004408BC004308BB004208BA008030C20015
:100760004208CA06CD09CD0A4D08031DB82BB92B86
:10077000D62B0130BA07003003180130BB07003018
:1007800003180130BC07003003180130BD07D62B19
:100790003E08BA023F08031C3F0FBB024008031C7F
:1007A000400FBC024108031C410FBD023D083C0440
:1007B0003B043A04031DDD2BDE2B0A2C4D08031DE0
:1007C000E22BE32B0A2C0030BD000030BC000030CF
:1007D000BB000030BA00882C0130C2000310BA0DF3
:1007E000BB0DBC0DBD0DC20BEE2BCD1FF82BF92B95
:1007F000FA2B3A144D1CFD2BFE2B012C0314CD0DAE
:10080000032C0310CD0D4C080319072C082C0A2CBF
:100810000130CC02BC1F0D2C0E2CEC2BCB01CD1FBC
:10082000122C132C212C4D087F390319182C192C4C
:100830001C2CCB01CB0A212C3A1C1F2C202C212C48
:10084000192C4B080319252C262C5A2C0130BA07D9
:10085000003003180130BB07003003180130BC071B
:10086000003003180130BD073D1C372C382C5A2CA2
:100870003A08C2003B08C3003C08C4003D08C5005C
:100880000130C600450DC50CC40CC30CC20CC60B10
:10089000422C4508BD004408BC004308BB00420888
:1008A000BA004C0A0319552C562C5A2C0130C200A0
:1008B0004208CC074C0A03195E2C5F2C642C4C08B0
:1008C000031D632C642C722C0030BD000030BC0072
:1008D0000030BB000030BA004C08031D702C712C96
:1008E000722CCA014C1C752C762C782CBC177C2CD5
:1008F0007F30C2004208BC054C08C2000310420C05
:10090000C3004308BD00CA1F862C872C882CBD1746
:1009100008008312031323088039A8002808AD00BB
:100920002308A8002807A9002908B300A21F992CB2
:100930009A2C9B2C3314330803199F2CA02CAF2C1A
:10094000330A031DA42CA52CAD2C0030A3000030CD
:10095000A2000030A1000030A000A217B72C003088
:10096000A3000030A2000030A1000030A000270842
:100970008039A8002808AD062708A8002807A90084
:100980002908B200A61FC52CC62CC72C3214320869
:100990000319CB2CCC2CDB2C320A031DD02CD12CF0
:1009A000D92C0030A7000030A6000030A500003090
:1009B000A400A617E32C0030A7000030A6000030EA
:1009C000A5000030A40032080319E72CE82CED2C18
:1009D0003308031DEC2CED2CF62C0030A300003066
:1009E000A2000030A1000030A000E92F2008A800DC
:1009F0002808F00026080A128A151A230A128A11FA
:100A0000710883120313B9007008B8003808A800F1
:100A1000A901AA01AB012B08B1002A08B0002908DE
:100A2000AF002808AE003908A800A901AA01AB014F
:100A30002B08B7002A08B6002908B5002808B4001A
:100A40002108A8002808F00025080A128A151A2390
:100A50000A128A11710883120313B9007008B800D2
:100A60003808A800A901AA01AB012808AE07290887
:100A700003110318013E03193E2DAF072A08031185
:100A80000318013E0319452DB0072B080311031865
:100A9000013E03194C2DB1073908A800A901AA018C
:100AA000AB012808B407290803110318013E0319F4
:100AB0005A2DB5072A0803110318013E0319612DA9
:100AC000B6072B0803110318013E0319682DB70759
:100AD0002208A8002808F00024080A128A151A2300
:100AE0000A128A11710883120313B9007008B80042
:100AF0003808A800A901AA01AB012808AE072908F7
:100B000003110318013E0319862DAF072A080311AC
:100B10000318013E03198D2DB0072B08031103188C
:100B2000013E0319942DB1073908A800A901AA01B3
:100B3000AB012808B407290803110318013E031963
:100B4000A22DB5072A0803110318013E0319A92D88
:100B5000B6072B0803110318013E0319B02DB70780
:100B60000830A8000310AE0DAF0DB00DB10DA80BED
:100B7000B22D2108A8002808F00024080A128A15BE
:100B80001A230A128A11710883120313B90070081C
:100B9000B8003808A8003908A900AA01AB01280844
:100BA000AE07290803110318013E0319D82DAF071A
:100BB0002A0803110318013E0319DF2DB0072B0883
:100BC00003110318013E0319E62DB1072008A80000
:100BD0002808F00025080A128A151A230A128A1119
:100BE000710883120313B9007008B8003808A80010
:100BF0003908A900AA01AB012808AE07290803118A
:100C00000318013E0319052EAF072A080311031824
:100C1000013E03190C2EB0072B0803110318013EE7
:100C20000319132EB1070830A8000310AE0DAF0D45
:100C3000B00DB10DA80B152E2008A8002808F00053
:100C400024080A128A151A230A128A1171088312BB
:100C50000313B9007008B8003808A8003908A900C3
:100C6000AA01AB012808AE07290803110318013EA9
:100C700003193B2EAF072A0803110318013E03197D
:100C8000422EB0072B0803110318013E0319492E09
:100C9000B1072108A8002808F00026080A128A15C2
:100CA0001A230A128A11710883120313B9007008FB
:100CB000B8003808A8003908A900AA01AB01280823
:100CC000B407290803110318013E0319682EB5075C
:100CD0002A0803110318013E03196F2EB6072B08CB
:100CE00003110318013E0319762EB7072208A80046
:100CF0002808F00025080A128A151A230A128A11F8
:100D0000710883120313B9007008B8003808A800EE
:100D10003908A900AA01AB012808B4072908031162
:100D20000318013E0319952EB5072A08031103186D
:100D3000013E03199C2EB6072B0803110318013E30
:100D40000319A32EB7072208A8002808F0002608D8
:100D50000A128A151A230A128A11710883120313C0
:100D6000B9007008B8003808A8003908A900AA011D
:100D7000AB0108300310A80DA90DAA0DAB0DFF3E65
:100D8000031DBA2E2808B407290803110318013ED1
:100D90000319CB2EB5072A0803110318013E0319C6
:100DA000D22EB6072B0803110318013E0319D92EC2
:100DB000B7072E08A8002F08A9003008AA0031089C
:100DC000AB0018300310AB0CAA0CA90CA80CFF3E0A
:100DD000031DE22E2808B407290803110318013E59
:100DE0000319F32EB5072A0803110318013E03194E
:100DF000FA2EB6072B0803110318013E0319012F21
:100E0000B7070830A8000310AE0DAF0DB00DB10D3F
:100E1000A80B032F33083207A800A901A90D280841
:100E2000823EB80029080318013EFF3EB900352F65
:100E30000130A8000310B40DB50DB60DB70DA80B09
:100E40001A2FB11F242F252F262F34140130A8006C
:100E50000310AE0DAF0DB00DB10DA80B282FFF3054
:100E6000B8070318B90AFF30B907B61F382F392F52
:100E7000182FB201B11F3D2F3E2F5A2FFF302E05E4
:100E8000A800FF302F05A900FF303005AA007F30F1
:100E90003105AB002B082A04290428040319512F1B
:100EA000522F552FB201B20A5A2F341C582F592FE6
:100EB0005A2F522F320803195E2F5F2F902F0130C7
:100EC000B407003003180130B507003003180130B3
:100ED000B607003003180130B707371C702F712F89
:100EE000902F3408A8003508A9003608AA00370852
:100EF000AB000130AC002B0DAB0CAA0CA90CA80C5C
:100F0000AC0B7B2F2B08B7002A08B6002908B500C8
:100F10002808B4000130B8070318B90A0030B9072F
:100F20003908803AFF0080307F02031D992FFF307F
:100F30003802031C9C2F9D2FA82F7F308312031390
:100F4000B7008030B6000030B5000030B400DD2FAF
:100F5000831203133908803AFF0080307F02031D9B
:100F6000B32F013038020318B62FB72FC32F00302C
:100F700083120313B7000030B6000030B500003014
:100F8000B400AD01DD2F831203133808A800280830
:100F9000B300FF30B405FF30B5057F30B605003033
:100FA000B705331CD42FD52FD62FB6173308A8007A
:100FB0000310280CA9002908B7002D08A80028084C
:100FC000B7043708A3003608A2003508A10034088A
:100FD000A000080083120313E301E401E501E60128
:100FE000E701E801E901EA01EB01EC0183160313D3
:100FF000A001A101A201A30183010A128A115528AF
:1010000008308A000408840A8207003453343134DB
:101010003A34203420342034533432343A342034B7
:1010200020342034533433343A34003420342034E0
:0C10300000344334203400342E340034EB
:101496000A128A1567220A128A1583160313111473
:1014A60008000A128A1567220A128A158316031380
:1014B600111508000A128A1567220A128A15700881
:1014C60083120313930008008316031314196C2A5E
:1014D6006D2A672A11081F39031D722A732A672A83
:1014E600080000300A128A1596220A128A1501305F
:1014F6000A128A1596220A128A150800F300F201CA
:10150600731C862A872A8B2A7008F1007108F20755
:101516000310F00D0310F30C7308031D932A942A8D
:10152600832A72080800F300831203130811730854
:101536000A128A15B0220A128A1583120313881515
:101546000630F2003030F100F10BA72AF20BA72A81
:1015560000008312031388110800F000701CB42ADF
:10156600B52AB92A831203130816BC2A8312031359
:101576000812F01CBF2AC02AC22A8816C32A88125B
:10158600701DC62AC72AC92A0817CA2A0813F01DB9
:10159600CD2ACE2AD02A8817D12A88130800831686
:1015A6000317890183160313880189018312031324
:1015B6008501860187018801831603130F140F170F
:1015C6008F160F12003083120313A3000130A200FE
:1015D6008630A100A030A0000A128A15A6230A129E
:1015E6008A150800F700F501F6010C2B7508770738
:1015F60084000A128A1500200A128A150A128A1510
:101606006F230A128A150130F5070318F60A00300F
:10161600F6077508770784000A128A1500200A1251
:101626008A15003A031D182B192BF92A0800F80011
:10163600F401F5017008F200F3017208F600730870
:10164600F700781C272B282B2E2B7608F407031877
:10165600F50A7708F50701300310F60DF70DFF3E82
:10166600031D2F2B0310F80C7808031D3B2B3C2B76
:10167600242B7508F1007408F00008000A128A1578
:1016860067220A128A158316031391150A128A1500
:1016960067220A128A15831203131308F200F30154
:1016A6007208F4007308F5000A128A1567220A12F6
:1016B6008A1570037104031D612B622B662B83163A
:1016C60003139112692B83160313911611167508CD
:1016D600F1007408F0000800F40074080F39F100F6
:1016E6007108F2007408F039F1007108F3008312F2
:1016F600031308157308F10004300310F10CFF3EC4
:10170600031D802B71080A128A15B0220A128A1547
:101716008312031388150D30F100F10B902B831201
:101726000313881172080A128A15B0220A128A1542
:101736008312031388150D30F100F10BA02B8312D1
:1017460003138811080028308312031394008316AC
:1017560003139101831203132008A4002108A50096
:101766002208A6002308A70002300310A40DA50D29
:10177600A60DA70DFF3E031DB82B2708F30026086C
:10178600F2002508F1002408F0000030F7003D3093
:10179600F6000930F5000030F4000A128A159E247E
:1017A6000A128A157008FF3E8316031393009401EC
:1017B60087150716080000300A128A15B0220A1289
:1017C6008A151A30F500F830F400F40BE82BF50B07
:1017D600E82B000003300A128A1596220A128A158F
:1017E6000730F5007D30F400F40BF72BF50BF72BE3
:1017F60003300A128A1596220A128A150F30F5004E
:101806004730F400F40B052CF50B052C0A2C03309D
:101816000A128A1596220A128A1502300A128A15A7
:1018260096220A128A1502300A128A1596220A127E
:101836008A1508300A128A1596220A128A1500306D
:101846000A128A1596220A128A150C300A128A156D
:1018560096220A128A1500300A128A1596220A1250
:101866008A1506300A128A1596220A128A15080067
:10187600FC007C08F9007908FD006430F0000030B7
:10188600F1007D08F900FA017908F2007A08F30000
:101896000A128A1504250A128A157008FB007B08AD
:1018A60083120313E9009C30F9007908F0006908F7
:1018B6000A128A1581220A128A157D07FA007A0809
:1018C600FD000A30F0000030F1007D08F900FA0151
:1018D6007908F2007A08F3000A128A1504250A121A
:1018E6008A157008FB007B0883120313EA00F630A2
:1018F600F9007908F0006A080A128A1581220A128C
:101906008A157D07FA007A08FD007D08F900790836
:1019160083120313EB006908303EF9007908E900E9
:101926006A08303EF9007908EA006B08303EF90093
:101936007908EB0008000030FC000030FB000030A6
:10194600FA000030F9007308720471047004031978
:10195600AD2CAE2CFB2CFD01FD0ABE2C0130F8008F
:101966000310F00DF10DF20DF30DF80BB32C013051
:10197600F8007808FD07F31FC12CC22CB12C0130EA
:10198600F8000310F90DFA0DFB0DFC0DF80BC42C35
:1019960073087702031DD92C72087602031DD92C11
:1019A60071087502031DD92C70087402031CDC2C07
:1019B600DD2CEC2C7008F4027108031C710FF50283
:1019C6007208031C720FF6027308031C730FF702EA
:1019D600791401300310F30CF20CF10CF00CFF3EFD
:1019E600031DED2C0130FD02031DFA2CFB2CC22C2D
:1019F6007C08F3007B08F2007A08F1007908F00011
:101A06000800F601F11F082D092D102DF009F10926
:101A1600F00A0319F10AF601F60AF31F132D142D25
:101A26001D2DF209F309F20A0319F30A0130F40035
:101A36007408F606F701F801700871040319242DDD
:101A4600252D5C2DF501F50A332D01300310F00D1F
:101A5600F10DFF3E031D292D0130F4007408F50732
:101A6600F11F362D372D282D01300310F70DF80DF7
:101A7600FF3E031D382D71087302031D442D7008A7
:101A86007202031C472D482D4F2D7008F202710873
:101A9600031CF303F302771401300310F10CF00C6E
:101AA600FF3E031D502D0130F502031D5B2D5C2DFD
:101AB600372D76080319602D612D662DF709F80973
:101AC600F70A0319F80A7808F1007708F000080009
:101AD600031083120313500D510DD2005208D80083
:101AE6005808031D772D782D812D0030D100003048
:101AF600D0000030CF000030CE00E62D4E08D200D8
:101B06004F08D3005008D4005108D5001F300310E9
:101B1600D50CD40CD30CD20CFF3E031D8A2D5208D3
:101B2600D6005608D700D017FF30CE05FF30CF05B8
:101B3600FF30D0050030D1059630D802D81FA42D2D
:101B4600A52DBF2D5808803A973E0318AB2DAC2D16
:101B5600AD2D782D01300310D10CD00CCF0CCE0C4E
:101B6600FF3E031DAE2D0130D2005208D807031DDB
:101B7600BD2DBE2DAD2DD62D20305802031CC42DF3
:101B8600C52DD12D782D0130D2000310CE0DCF0DED
:101B9600D00DD10DD20BC82D0130D8025808031D27
:101BA600D52DD62DC62D57080319DA2DDB2DE62D9A
:101BB600CE09CF09D009D109CE0A0319CF0A0319D4
:101BC600D00A0319D10A080083120313DE005E0847
:101BD600D9005908DF005F08D900DA01DB01DC0112
:101BE6005C08F3005B08F2005A08F1005908F0009F
:101BF60001300A128A1546270A128A1573088312BB
:101C06000313A7007208A6007108A5007008A400B7
:101C16003F30A300FA30A200E130A1004830A00016
:101C26000A128A1189240A128A15831203132308B9
:101C3600D1002208D0002108CF002008CE000A12C9
:101C46008A156B250A128A15831203134E08DD00C6
:101C56005D08DF006430F0000030F1005F08D90055
:101C6600DA015908F2005A08F3000A128A15042507
:101C76000A128A15700883120313DB005B08E90059
:101C86009C30D9005908F00069080A128A15812289
:101C96000A128A15831203135F07DA005A08DF0057
:101CA6000A30F0000030F1005F08D900DA01590867
:101CB600F2005A08F3000A128A1504250A128A1538
:101CC600700883120313DB005B08EA00F630D900C4
:101CD6005908F0006A080A128A1581220A128A1522
:101CE600831203135F07DA005A08DF005F08D90082
:101CF6005908EB006908303ED9005908E9006A081E
:101D0600303ED9005908EA006B08303ED900590820
:101D1600EB00080083120313DE005E08D900DA0127
:101D2600DB01DC015C08F3005B08F2005A08F100F5
:101D36005908F00001300A128A1546270A128A1538
:101D4600730883120313A7007208A6007108A50082
:101D56007008A4003F30A3003330A2003330A10046
:101D66003330A0000A128A1189240A128A158312B6
:101D760003132308C1002208C0002108BF00200861
:101D8600BE00C230BD003C30BC000030BB0000309D
:101D9600BA000A128A1101220A128A158312031343
:101DA6003D08D1003C08D0003B08CF003A08CE00E1
:101DB6000A128A156B250A128A15831203134E0816
:101DC600DD005D08DF006430F0000030F1005F08E0
:101DD600D900DA015908F2005A08F3000A128A15E6
:101DE60004250A128A15700883120313DB005B08A8
:101DF600E9009C30D9005908F00069080A128A15D2
:101E060081220A128A15831203135F07DA005A0821
:101E1600DF000A30F0000030F1005F08D900DA0177
:101E26005908F2005A08F3000A128A1504250A1204
:101E36008A15700883120313DB005B08EA00F6308C
:101E4600D9005908F0006A080A128A1581220A1276
:101E56008A15831203135F07DA005A08DF005F084A
:101E6600D9005908EB006908303ED9005908E90045
:101E76006A08303ED9005908EA006B08303ED9009E
:101E86005908EB000800F800780803194B2F4C2F6F
:101E9600602FF31F4F2F502F602F7009FA00710922
:101EA600FB007209FC007309FD00FA0A0319FB0A1C
:101EB6000319FC0A0319FD0A682F7308FD0072084E
:101EC600FC007108FB007008FA00730872047104C4
:101ED6007004031D6F2F702F792F0030F300003030
:101EE600F2000030F1000030F000FF2F9630F400D1
:101EF6007408F9008B2F0130F4007408F9070130DB
:101F06000310FD0CFC0CFB0CFA0CFF3E031D832F8B
:101F1600FE307D05031D902F912F7E2FAD2F0130B2
:101F2600F4007408F9070130FA070030031801308D
:101F3600FB07003003180130FC070030031801309E
:101F4600FD0701300310FD0CFC0CFB0CFA0CFF3EE8
:101F5600031DA52FFF307D05031DB22FB32F922F32
:101F6600BF2F0130F9020130F4000310FA0DFB0D0A
:101F7600FC0DFD0DF40BB82FFC1BC22FC32FC92F70
:101F8600023079020318C82FC92FB42F7918CC2F25
:101F9600CD2FD52FFF30FA05FF30FB057F30FC052E
:101FA600FF30FD050310F90C7908F400F501F60180
:101FB600F70118300310F40DF50DF60DF70DFF3E81
:101FC600031DDD2F7408FA047508FB047608FC046B
:101FD6007708FD0478080319F12FF22FF72FF31F66
:101FE600F52FF62FF72FFD177D08F3007C08F2007A
:0A1FF6007B08F1007A08F0000800F3
:04400E00D420FF3F7C
:00000001FF
