:020000040000FA
:060000000A128A110C280F
:10000800FE00030EF1000A08F2000A128A11B82D48
:100018000A128A110F28F801F901FA018312031351
:10002800EC01ED0183160313A001A101A201A301B4
:10003800A401A501A601A701A80183010A128A113A
:10004800D22EFF0000308A007F0882072A280A1271
:100058008A11F82E023083160313AB004530AA002C
:10006800A930A900A90B3628AA0B3628AB0B3628CD
:100078008312031305080A128A1192240A128A119C
:1000880063300A128A11A2260A128A1102308316D4
:100098000313AB004530AA00A930A900A90B5228C8
:1000A800AA0B5228AB0B5228831203136C08990031
:1000B800023083160313AB004530AA00A930A9000B
:1000C800A90B6428AA0B6428AB0B642883120313BA
:1000D8006D089900023083160313AB004530AA005F
:1000E800A930A900A90B7628AA0B7628AB0B76288D
:1000F8007A08831203139900023083160313AB00A6
:100108004530AA00A930A900A90B8828AA0B88287D
:10011800AB0B882889300A128A11A2260A128A1182
:100128000B300A128A11A2260A128A1183120313AB
:100138008C1E9F28A0289A281A08D03E83160313DD
:10014800A9002908F9003330831203131A0203188F
:10015800AE28AF289A2878300A128A11A2260A12E5
:100168008A11831203138C1EBA28BB28B5281A08D3
:10017800D03E83160313A9002908F8000230790637
:10018800031DC728C828D0283630831203131A0243
:100198000318CF28D028B5288B300A128A11A22636
:1001A8000A128A11831203138C1EDB28DC28D62836
:1001B8001A08D03E83160313A9002908A6000230A6
:1001C8007906031DE828E928F72805307806031D75
:1001D800EE28EF28F7283630831203131A02031883
:1001E800F628F728D628790883160313A900AA0148
:1001F800290883120313BD00831603132A088312E8
:100208000313BE00780883160313AB00AC012B0858
:1002180083120313BF00831603132C0883120313DE
:10022800C0000A128A113F250A128A118312031389
:100238003D0883160313AD002D08A4002408A90067
:10024800AA01290883120313BD00831603132A0881
:1002580083120313BE00831603132608AB00AC01F8
:100268002B0883120313BF00831603132C08831271
:100278000313C0000A128A113F250A128A11831239
:1002880003133E0883160313A100831203133D08CA
:1002980083160313A000023083160313AB00453006
:1002A800AA00A930A900A90B5729AA0B5729AB0BFB
:1002B800572983160313210883120313B5008316E5
:1002C8000313200883120313B40048300A128A115A
:1002D800A2260A128A11831603132108A3002008F4
:1002E800A200080083120313B300952A25303206B2
:1002F80003197F298029A629330A8400831300085B
:1003080003198729882997293208AB002B08F3009D
:10031800330A840000080A128A1125200A128A1159
:100328008312031379293208AB00330884000008CC
:1003380084002B0880000130AB00330884002B08B0
:1003480080077929AE010130A907FF302907840009
:100358000A128A1100230A128A11B200AB00AC01FA
:100368002C08003A0319B929952A2B08003A0319D1
:10037800A92A643A0319C4290D3A0319C429952AEC
:100388002A08840083130008AB00023080072B087A
:1003980084000008B000840A0008B100B11FD52904
:1003A800D629DF290330AB002B08AE04B009B10908
:1003B800B00A0319B10AB201B20A3208AB002B071E
:1003C800013E84000A128A1100230A128A11AC0025
:1003D8000A128A1100230A128A11AD002D0831026F
:1003E800031DF8292C0830020318FB29FC29FD29D4
:1003F800072A0130AB002B08B20705303206031D6F
:10040800062A072AE1292E08033903190C2A0D2A7E
:10041800302A330A8400831300080319142A152A82
:10042800222A2D30AB002B08F300330A8400000881
:100438000A128A1125200A128A11302A2D30AB009F
:1004480033088400000884002B0880000130AB00CA
:10045800330884002B088007831203133208AB008B
:100468002B08AF008A2A0A30A3000030A4002F0806
:10047800AB002B07013E84000A128A1100230A12DE
:100488008A11F3000A128A1100230A128A11F40051
:100498003108F6003008F5000A128A11F9240A1208
:1004A8008A11740883120313A6007308A5000A12A0
:1004B8008A117C250A128A11831203132308303EFD
:1004C800AC002C08B200330A840083130008031917
:1004D8006E2A6F2A7C2A3208AB002B08F300330AF5
:1004E800840000080A128A1125200A128A118A2A11
:1004F8003208AB0033088400000884002B08800011
:100508000130AB00330884002B088007FF308312CA
:100518000313AB002B08AF072F0A031D942A952A53
:10052800372A013083120313A907FF3029078400F3
:100538000A128A1100230A128A11AB002B08B20092
:100548003208031DA82AA92A7A29A901AA010800A4
:1006000003308A000408840A82070034013400346D
:100610000A34003464340034E834033410342734AA
:1006200049346E34673472346534733461347234EF
:100630002034763461346C346F3472342034643452
:10064000653420346C3461342034633465346E3462
:10065000743465346E3461342034713475346534E7
:10066000203473346534613420346D3465346E3431
:100670006F34723420346F34203469346734753405
:1006800061346C3420347134753465342034323440
:100690003A3420340D342034003445346C34203462
:1006A0006E3475346D34653472346F34203465348F
:1006B0006C3465346734693464346F3420346534A1
:1006C00073343A3420342534643420340D34003407
:1006D000563461346C346F3472342034643465348D
:1006E0006C34203463346F346E3474346134643465
:1006F0006F3472343A340D34003449346E34673414
:100700007234653473346134723420346434653443
:10071000633465346E3461343A3420340D3400343B
:1007200049346E34673472346534733461347234EE
:10073000203475346E3469346434613464343A344A
:1007400020340D3400342534643400348312031310
:10075000A900AE2B0130A4002408A90729088400B1
:100760002030831300060319B62BB72BAA2B2908B8
:100770008400093000060319BE2BBF2BAA2BA7014A
:10078000A801A601290884002D300006031DC92BED
:10079000CA2BD32B0130A4002408A6070130A400E3
:1007A0002408A907052C290884002B300006031D06
:1007B000DA2BDB2B052C0130A4002408A907052C1B
:1007C00083120313290884002808F4002708F30083
:1007D0000A30F5000030F6000A128A112D260A129E
:1007E0008A1183130008730783120313A4000030D7
:1007F000031801307407A5002408D03EA70025087F
:100800000318013EFF3EA800DB2B290884000008E6
:100810000A128A11E6260A128A110318102C112CCA
:10082000E02B8312031326080319172C182C242CF1
:100830002709A4002809A500A40A0319A50A240869
:10084000A2002508A300282C2808A3002708A2003E
:10085000080083120313A101F41F2F2C302C372C16
:10086000F309F409F30A0319F40AA101A10AF61F16
:100870003A2C3B2C442CF509F609F50A0319F60A23
:100880000130F7007708A106A201A30173087404E0
:1008900003194B2C4C2C832CA001A00A5A2C01309C
:1008A0000310F30DF40DFF3E031D502C0130F70033
:1008B0007708A007F41F5D2C5E2C4F2C013003102D
:1008C000A20DA30DFF3E031D5F2C74087602031DCD
:1008D0006B2C73087502031C6E2C6F2C762C73081E
:1008E000F5027408031CF603F6022214013003100B
:1008F000F40CF30CFF3E031D772C0130A002031D06
:10090000822C832C5E2C21080319872C882C8D2C9B
:10091000A209A309A20A0319A30A2308F4002208C2
:10092000F300080083120313A7002708A40024087B
:10093000A8006430F3000030F4002808A400A501EA
:100940002408F5002508F6000A128A1129240A1243
:100950008A11730883120313A6002608EC009C304A
:10096000A4002408F3006C080A128A11BD260A129A
:100970008A11831203132807A5002508A8000A304E
:10098000F3000030F4002808A400A5012408F500B5
:100990002508F6000A128A1129240A128A117308FE
:1009A00083120313A6002608ED00F630A4002408E5
:1009B000F3006D080A128A11BD260A128A118312E9
:1009C00003132807A5002508A8002808A400240868
:1009D000FA006C08303EA4002408EC006D08303E9C
:1009E000A4002408ED007A08303EA4002408FA0090
:1009F000080083120313A101A201730874040319F0
:100A0000022D032D3A2DA001A00A112D0130031053
:100A1000F30DF40DFF3E031D072D0130F70077089D
:100A2000A007F41F142D152D062D01300310A10D64
:100A3000A20DFF3E031D162D74087602031D222D04
:100A400073087502031C252D262D2D2D7308F50224
:100A50007408031CF603F602211401300310F40C91
:100A6000F30CFF3E031D2E2D0130A002031D392D76
:100A70003A2D152D2208F4002108F30008009E30BD
:100A800083120313C1004108B4003E08B6003D08BC
:100A9000B50056300A128A1181260A128A119E3038
:100AA00083120313C1004108B4004008B6003F0898
:100AB000B50042300A128A1181260A128A11423088
:100AC00083120313C1004108F30056300A128A1141
:100AD00058260A128A1156300A128A11A6230A12BF
:100AE0008A11831203132308EB002208EA006B0823
:100AF000BE006A08BD000800831203132308240403
:100B00000319832D842DB32DA801A80A922D01303D
:100B10000310A30DA40DFF3E031D882D0130A70077
:100B20002708A807A41F952D962D872D2408260297
:100B3000031D9C2D23082502031C9F2DA02DA62DEF
:100B40002308A5022408031CA603A60201300310F3
:100B5000A40CA30CFF3E031DA72D0130A802031D0A
:100B6000B22DB32D962D2608A4002508A300080059
:100B70000B1CBB2DBC2DEC2D831203130618C12DAD
:100B8000C22DC72D83160313A801A80AD52D8316DD
:100B900003132803031DCD2DCE2DD52DA801013023
:100BA000F000700883120313850783128618D92D6D
:100BB000DA2DDF2D83160313A701A70AEB2D831669
:100BC00003132703031DE52DE62DEB2DA7010130AF
:100BD0008312031385020B1072088A00710E8300C2
:100BE000FE0E7E0E09008316031788018901831605
:100BF00003138501033086008901831203138501E5
:100C0000860187018901831603130F140F178F16AE
:100C10000F12033096000330950081138B170B17CA
:100C20008B150B10831203138C120C1283160313F3
:100C30008C120C121813981618121815831203131D
:100C4000181318169817831603178711193083166F
:100C50000313990001309A00080083120313A001C6
:100C6000A101731C342E352E3D2E750883120313FB
:100C7000A0070318A10A7608A10701300310F50D9B
:100C8000F60DFF3E031D3E2E01300310F40CF30C55
:100C9000FF3E031D452E73087404031D502E512E74
:100CA000312E831203132108F4002008F3000800FA
:100CB000F5007508F4007408F600622E0130F400A7
:100CC0007408F6077608840083130008031D692E54
:100CD0006A2E5E2E732E0130F4007408F607013080
:100CE000F4007408F307730884000008F400760821
:100CF0008400740880000008031D7F2E802E6B2E58
:100D0000080083120313B9003908B7003708BB0085
:100D1000BC013530B7003708BA003408B7003708CF
:100D2000A9003A30B8003808AA003B300A128A11EC
:100D300076210A128A11831203133B08840083135D
:100D40008001080083120313B900BA010130B60014
:100D50003608BB003430B6003608B8003908B60093
:100D60003608A9003830B7003708AA003A300A120E
:100D70008A1176210A128A110800F600F501761C04
:100D8000C22EC32EC72E7308F4007408F507031093
:100D9000F30D0310F60C7608031DCF2ED02EBF2EB8
:100DA000750808000A128A11F3250A128A1183169F
:100DB000031322088312031388000A128A112E20BB
:100DC0000A128A11D72E0A128A110C28F400F30194
:100DD0003A3074020318ED2EEE2EF62E30307402E7
:100DE000031CF32EF42EF62EF301F30A730C080005
:100DF000831203130C1EFD2EFE2EF82E730899008D
:020E00000800E8
:04400E00D420FF3F7C
:00000001FF
