:020000040000FA
:060000000A128A110C280F
:10000800FE00030EF7000A08F8000A128A112328D6
:100018000A128A110F28F901FA01FB01FC01FD01FE
:1000280083120313B101B201B301B401B501B601E2
:10003800B701B801B90183010A128A11E4290B1C1E
:10004800262827284A288312031306182C282D2827
:100058003028FD01FD0A3A287D03031D3428352880
:100068003A28FD010130F4007408B70786183D28C6
:100078003E284128B901B90A49283903031D4528F2
:1000880046284928B9010130B7020B10831203131F
:100098008C1E4F285028D1281A08F4007408FC0038
:1000A8007C08031D5828592884280C1E5C285D28C4
:1000B80066283A089900C730F4006228F40B6128D2
:1000C80065286628831203130C1E6B286C28752874
:1000D8003B089900C730F4007128F40B7028742885
:1000E8007528831203130C1E7A287B2884283C0861
:1000F8009900C730F4008028F40B7F2883288428CF
:10010800831203138C127C0A031D8B288C28D02899
:100118008C1E8F2890288C281A08F4007408F9007F
:100128008C128C1E9828992895281A08F4007408AF
:10013800FA008C128C1EA128A2289E281A08F40006
:100148007408FB008C127908D03EF4007408F9009A
:100158007A08D03EF4007408FA007B08D03EF40018
:100168007408FB000A30F4007408F0007A080A12D8
:100178008A111B220A128A11F5006430F6007608EB
:10018800F00079080A128A111B220A128A117507CF
:100198007B078312031388008C1278088A00770E75
:1001A8008300FE0E7E0E090083120313A601A11F11
:1001B800DE28DF28E628A009A109A00A0319A10A58
:1001C800A601A60AA31FE928EA28F328A209A30979
:1001D800A20A0319A30A0130A4002408A606A7014D
:1001E800A801200821040319FA28FB283229A501AF
:1001F800A50A092901300310A00DA10DFF3E031D1A
:10020800FF280130A4002408A507A11F0C290D29E7
:10021800FE2801300310A70DA80DFF3E031D0E296F
:1002280021082302031D1A2920082202031C1D2964
:100238001E2925292008A2022108031CA303A302C2
:10024800271401300310A10CA00CFF3E031D262922
:100258000130A502031D312932290D292608031969
:10026800362937293C29A709A809A70A0319A80A82
:100278002808A1002708A000080083120313AC0077
:100288002C08A9002908AD006430A0000030A100A6
:100298002D08A900AA012908A2002A08A3000A1209
:1002A8008A11D8200A128A11831203132008AB007E
:1002B8002B08BA009C30A9002908A0003A080A12A5
:1002C8008A1104220A128A11831203132D07AA0025
:1002D8002A08AD000A30A0000030A1002D08A900AE
:1002E800AA012908A2002A08A3000A128A11D82004
:1002F8000A128A11831203132008AB002B08BB00D3
:10030800F630A9002908A0003B080A128A11042225
:100318000A128A11831203132D07AA002A08AD00B6
:100328002D08A9002908BC003A08303EA900290870
:10033800BA003B08303EA9002908BB003C08303E03
:10034800A9002908BC000800831603178801890141
:1003580083160313850103308600880189018312FF
:100368000313850186018701880189018316031318
:100378000F140F178F160F120330960003309500D5
:1003880081138B170B178B150B10831203138C1209
:100398000C12831603138C160C12181398161812C5
:1003A80018158312031318131816981783160317B2
:1003B8008711193083160313990001309A00080039
:1003C8000A128A11A8210A128A1183120313370804
:1003D8000A128A1141210A128A1102308312031368
:1003E800B0000430AF00B930AE00AE0BF929AF0B46
:1003F800F929B00BF929002AE9290A128A110C28CF
:1004080083120313A300A201231C0B2A0C2A102A0F
:100418002008A1002108A2070310A00D0310A30CB7
:100428002308031D182A192A082A22080800F3009D
:10043800F201731C202A212A252A7008F10071086C
:10044800F2070310F00D0310F30C7308031D2D2A97
:080458002E2A1D2A720808007B
:04400E00D420FF3F7C
:00000001FF
