:020000040000FA
:060000000A128A110C280F
:10000800FE00030EF1000A08F2000A128A111628EF
:100018000A128A110F28F401F501F60183010A1268
:100028008A11CF280B1C19281A282B28831203138E
:1000380006181F28202824280130F0007008F60729
:100048008618272828282A280130F6020B10831240
:1000580003138C1D3028312887281412141B3528C7
:1000680036283A28941F39283A2841281308F000DE
:100078007008F50014139413141683160313941AB6
:1000880046284728642814194A284B2864288312CC
:1000980003131308F0007008F5008C11141683166A
:1000A8000313141C582859285328831203131308C0
:1000B800F0007008F4005330F000F00B6128842839
:1000C800941A672868288428141D6B286C288428AB
:1000D800831203131308F0007008F5008316031346
:1000E8001410760883120313930014165330F0008B
:1000F800F00B7C28831603131418832884287E2881
:10010800831203138C1172088A00710E8300FE0E8D
:100118007E0E0900831603178901831603138501D0
:1001280003308600871107128801831203138501A3
:100138008601870188018316031381131614961408
:10014800033095008B170B178B150B100F140F1717
:100158008F160F1260300A128A11B5200A128A11FE
:100168000800F300730883160313930036308312D4
:100178000313940080308316031394000130910018
:10018800871507168B170B17831203138C11831609
:1001980003138C1508000A128A118E200A128A117C
:1001A8007608831203138800D4280A128A110C28AF
:04400E00D420FF3F7C
:00000001FF
