:020000040000FA
:060000000A128A110C280F
:10000800FE00030EF1000A08F2000A128A11732C8E
:100018000A128A110F28F801F901FA018312031351
:10002800AB01AC01AD01AE01AF0183010A128A1127
:100038001D280A128A1130240A128A110A128A11FA
:10004800E2230A128A110A128A11AA250A128A11AF
:10005800F701F70A01300A128A118A230A128A1153
:1000680025300A128A11F2240A128A1102300A1261
:100078008A11BA210A128A11831203132C080A1250
:100088008A1123230A128A11F701F70A02300A1289
:100098008A118A230A128A1178080A128A115E259F
:1000A8000A128A1138300A128A11F2240A128A11A5
:1000B80079080A128A115E250A128A117A080A1228
:1000C8008A115E250A128A1135300A128A11F22421
:1000D8000A128A11831203130C1E73287428942899
:1000E800C33083120313AA00CC30A900A90B7A28C5
:1000F800AA0B7A28000001300A128A113F250A1239
:100108008A11C33083120313AA00CC30A900A90BAB
:100118008B28AA0B8B2800007808831203139900F8
:100128000D3083120313AA00FB30A900A90B9A28EB
:10013800AA0B9A28831203130C1EA328A428A62806
:100148002E3099000D3083120313AA00FB30A9004A
:10015800A90BAC28AA0BAC28831203130C1EB528D4
:10016800B628B828790899000D3083120313AA001D
:10017800FB30A900A90BBE28AA0BBE2883120313C3
:100188000C1EC728C828CA287A0899000D3083127F
:100198000313AA00FB30A900A90BD028AA0BD0286A
:1001A800831203130C1ED928DA28DC280D30990095
:1001B800823083120313AA00DD30A900A90BE228BC
:1001C800AA0BE228831203132B080A128A1123238D
:1001D8000A128A1178080A128A115E250A128A11EF
:1001E80038300A128A11F2240A128A1179080A127E
:1001F8008A115E250A128A117A080A128A115E2566
:100208000A128A1135300A128A11F2240A128A1146
:10021800C73083120313A9001129A90B1029142927
:10022800831203130C1E19291A293A29C330831281
:100238000313AA00CC30A900A90B2029AA0B202956
:10024800000013300A128A113F250A128A11C3309E
:1002580083120313AA00CC30A900A90B3129AA0BD9
:100268003129000078088312031399000D30831296
:100278000313AA00FB30A900A90B4029AA0B4029A7
:10028800831203130C1E49294A294C292E30990040
:100298000D3083120313AA00FB30A900A90B5229C1
:1002A800AA0B5229831203130C1E5B295C295E29B1
:1002B800790899000D3083120313AA00FB30A900B6
:1002C800A90B6429AA0B6429831203130C1E6D2938
:1002D8006E2970297A0899000D3083120313AA0039
:1002E800FB30A900A90B7629AA0B762983120313E0
:1002F8000C1E7F29802982290D30990082308312B3
:100308000313AA00DD30A900A90B8829AA0B8829A4
:10031800831203132F080A128A1123230A128A113F
:1003280078080A128A115E250A128A1179080A12B7
:100338008A115E250A128A117A080A128A115E2524
:100348000A128A1135300A128A11F2240A128A1105
:10035800823083120313AA00DD30A900A90BB22949
:10036800AA0BB2293A280A128A110C28F60083121D
:1003780003139F18C029C129B12A7A2A7603031DBD
:10038800C629C729CA29C3309F05B12A1F08C339FE
:1003980004389F00B12A02307606031DD429D529D6
:1003A800D829C3309F05B12A1F08C33908389F00D0
:1003B800B12A03307606031DE229E329E629C33072
:1003C8009F05B12A1F08C3390C389F00B12A043091
:1003D8007606031DF029F129F429C3309F05B12AB7
:1003E8001F08C33910389F00B12A05307606031D4F
:1003F800FE29FF29022AC3309F05B12A1F08C339E5
:1004080014389F00B12A06307606031D0C2A0D2ADF
:10041800102AC3309F05B12A1F08C33918389F0016
:10042800B12A07307606031D1A2A1B2A1E2AC33052
:100438009F05B12A1F08C3391C389F00B12A08300C
:100448007606031D282A292A2C2AC3309F05B12A9B
:100458001F08C33920389F00B12A09307606031DCA
:10046800362A372A3A2AC3309F05B12A1F08C339CA
:1004780024389F00B12A0A307606031D442A452AEB
:10048800482AC3309F05B12A1F08C33928389F005E
:10049800B12A0B307606031D522A532A562AC33036
:1004A8009F05B12A1F08C3392C389F00B12A0C3088
:1004B8007606031D602A612A642AC3309F05B12A83
:1004C8001F08C33930389F00B12A0D307606031D46
:1004D8006E2A6F2A722AC3309F05B12A1F08C339B2
:1004E80034389F00B12AC3309F05B12A1F0CF3008E
:1004F800730C0F39F400F5017508003A0319852AC1
:10050800B12A7408003A0319C229013A0319CF29FC
:10051800033A0319DD29013A0319EB29073A0319AC
:10052800F929013A0319072A033A0319152A013A46
:100538000319232A0F3A0319312A013A03193F2ACA
:10054800033A03194D2A013A03195B2A073A03199A
:10055800692A013A0319772AB12A3130F300F30BDB
:10056800B32AB62A831203139F14080083120313B5
:10057800A101F41FC02AC12AC82AF309F409F30A01
:100588000319F40AA101A10AF61FCB2ACC2AD52AFD
:10059800F509F609F50A0319F60A0130F700770894
:1005A800A106A201A301730874040319DC2ADD2A39
:1005B800142BA001A00AEB2A01300310F30DF40D4F
:1005C800FF3E031DE12A0130F7007708A007F41F5A
:1005D800EE2AEF2AE02A01300310A20DA30DFF3EF8
:1005E800031DF02A74087602031DFC2A730875029D
:1005F800031CFF2A002B072B7308F5027408031C41
:10060800F603F602221401300310F40CF30CFF3E3B
:10061800031D082B0130A002031D132B142BEF2AF6
:1006280021080319182B192B1E2BA209A309A20AAA
:100638000319A30A2308F4002208F3000800831210
:100648000313A7002708A4002408A8006430F300B7
:100658000030F4002808A400A5012408F5002508A6
:10066800F6000A128A11BA220A128A117308831232
:100678000313A6002608F8009C30A4002408F30001
:1006880078080A128A1195250A128A11831203130F
:100698002807A5002508A8000A30F3000030F40058
:1006A8002808A400A5012408F5002508F6000A1268
:1006B8008A11BA220A128A11730883120313A60038
:1006C8002608F900F630A4002408F30079080A1275
:1006D8008A1195250A128A11831203132807A50087
:1006E8002508A8002808A4002408FA007808303E45
:1006F800A4002408F8007908303EA4002408F90072
:100708007A08303EA4002408FA0008008312031374
:10071800A2002203031D912B922BB72B77087F3E53
:10072800A0002008A5002508A00004300310A00C94
:10073800FF3E031D9A2B2008A1002108A3002508CD
:100748000F39A0002008A40023080A128A117B256B
:100758000A128A118312031324080A128A117B25AC
:100768000A128A11E12B02302206031DBC2BBD2B75
:10077800E12B7708BF3EA0002008A5002508A000AF
:1007880004300310A00CFF3E031DC52B2008A10058
:100798002108A3002508F039A0002008A400230898
:1007A8000A128A117B250A128A118312031324085C
:1007B8000A128A117B250A128A11080000300A12CF
:1007C8008A11C1250A128A111A3083120313A10053
:1007D800F730A000A00BEE2BA10BEE2BF32B303043
:1007E8000A128A117B250A128A1107308312031311
:1007F800A1007C30A000A00BFF2BA10BFF2B000059
:1008080030300A128A117B250A128A11413083126C
:100818000313A000A00B0E2C112C30300A128A11E1
:100828007B250A128A113C300A128A117B250A128A
:100838008A1108300A128A117B250A128A1101309E
:100848000A128A117B250A128A1106300A128A11A5
:100858007B250A128A1108008316031789010330C1
:100868008800033083160313850007138717880150
:100878008901831203138501860187018801890193
:10088800F30103300A128A111B250A128A118316F2
:1008980003130F140F178F160F12C43081008B1714
:1008A8000B178B160B110C17831203130C138C12D6
:1008B800831603138C120C12181398161812181595
:1008C8008312031318131816981783160317871122
:1008D800193083160313990001309A0008000B1D84
:1008E800762C772C782C0B11831203130C1F7D2C7C
:1008F8007E2C912C1F0CF000700C0F39003A031D50
:10090800862C872C8C2C1E08F0007008AC00902CCC
:100918001E08F0007008AB000C138C1E942C952C4C
:10092800AC2C1A08F0007008AD002B302D06031D02
:100938009E2C9F2CA32C0130F0007008AF072D309F
:100948002D06031DA82CA92CAB2C0130AF028C124C
:1009580072088A00710E8300FE0E7E0E09000430B4
:100968008A000408840A82070034563441344C341F
:100978004F345234203444344534203450344F34C6
:100988005434203431343A3420340D34003456345D
:1009980041344C344F3452342034443445342034B8
:1009A80050344F345434203432343A3420340D34F3
:1009B8000034533431343A3420342034203453341E
:1009C80032343A34203420342034533433343A34F3
:1009D80000342034203400342E34003483120313BE
:1009E800A200A001A1010D2D2008220784000A12EF
:1009F8008A11B3240A128A110A128A115E250A1270
:100A08008A11013083120313A0070318A10A0030CA
:100A1800A1072008220784000A128A11B3240A12A7
:100A28008A11003A031D192D1A2DF82C0800F5001B
:100A38007508831603178800890175088316031340
:100A48008500C330831203139F052130F400F40B93
:100A58002B2D831203131F141F083F3940389F00A2
:100A6800730C83160313031C9F1303189F171F127D
:100A78009F120C170800F7007030F4007408F50096
:100A88004B2D76080A128A11B7250A128A110130ED
:100A9800F707FF30770784000A128A11B3240A1275
:100AA8008A11F4007408F6007608031D5C2D5D2D8C
:100AB800452D0800F5007508F4007408F60076085E
:100AC800F4007408F70083120313091477080A1254
:100AD8008A11C1250A128A118312031389140D3051
:100AE800F400F40B752D8312031389100800F60027
:100AF80083120313091076080A128A11C1250A12F3
:100B08008A118312031389140630F5003030F4007B
:100B1800F40B8C2DF50B8C2D000083120313891018
:100B28000800F600F501761C9A2D9B2D9F2D730861
:100B3800F4007408F5070310F30D0310F60C76089B
:100B4800031DA72DA82D972D7508080000300A123F
:100B58008A117B250A128A1101300A128A117B2513
:100B68000A128A110800F300831203130C1EBD2D0C
:100B7800BE2DB82D730899000800F300730883127E
:060B8800031388000800C1
:04400E00D420FF3F7C
:00000001FF
