:020000040000FA
:060000000A128A110C280F
:10000800FE00030EF1000A08F2000A128A11AC2C55
:100018000A128A110F28F801F901FA018312031351
:10002800A001A101A201A301A401A501A601A701A4
:10003800A801A901AA0183010A128A1123280A1218
:100048008A1129240A128A110A128A11DB230A1238
:100058008A110A128A11A4250A128A11F701F70ACD
:1000680001300A128A1183230A128A1125300A12D2
:100078008A11EC240A128A1102300A128A11B32159
:100088000A128A118312031321080A128A111C23E7
:100098000A128A11F701F70A02300A128A11832319
:1000A8000A128A1178080A128A1158250A128A1126
:1000B80079080A128A1158250A128A117A080A122E
:1000C8008A1158250A128A1135300A128A11EC242D
:1000D8000A128A11831203130C1E73287428942899
:1000E800C33083120313B500CC30B400B40B7A28A4
:1000F800B50B7A28000001300A128A1139250A1234
:100108008A11C33083120313B500CC30B400B40B8A
:100118008B28B50B8B2800007808831203139900ED
:100128000D3083120313B500FB30B400B40B9A28CA
:10013800B50B9A28831203130C1EA328A428A628FB
:100148002E3099000D3083120313B500FB30B40034
:10015800B40BAC28B50BAC28831203130C1EB528BE
:10016800B628B828790899000D3083120313B50012
:10017800FB30B400B40BBE28B50BBE2883120313A2
:100188000C1EC728C828CA287A0899000D3083127F
:100198000313B500FB30B400B40BD028B50BD0283E
:1001A800831203130C1ED928DA28DC280D30990095
:1001B800C33083120313B500CC30B400B40BE2286B
:1001C800B50BE22800008312031320080A128A11D3
:1001D8001C230A128A1178080A128A1158250A1251
:1001E8008A1179080A128A1158250A128A117A087E
:1001F8000A128A1158250A128A11D530831203135C
:10020800B40006290729B40B05290A290B290C294A
:10021800831203130C1E112912293229C3308312A9
:100228000313B500CC30B400B40B1829B50B18294A
:10023800000013300A128A1139250A128A11C330B4
:1002480083120313B500CC30B400B40B2929B50BC5
:100258002929000078088312031399000D308312AE
:100268000313B500FB30B400B40B3829B50B38299B
:10027800831203130C1E4129422944292E30990068
:100288000D3083120313B500FB30B400B40B4A29B8
:10029800B50B4A29831203130C1E532954295629D6
:1002A800790899000D3083120313B500FB30B400B0
:1002B800B40B5C29B50B5C29831203130C1E65294A
:1002C800662968297A0899000D3083120313B5004E
:1002D800FB30B400B40B6E29B50B6E2983120313DF
:1002E8000C1E772978297A290D309900C33083129A
:1002F8000313B500CC30B400B40B8029B50B8029AA
:1003080000008312031327080A128A111C230A12F9
:100318008A1178080A128A1158250A128A11393066
:100328000A128A11EC240A128A1179080A128A110F
:1003380058250A128A117A080A128A1158250A12AF
:100348008A11823083120313B500DD30B400B40B78
:10035800AB29B50BAB2940280A128A110C28F600E4
:10036800831203139F18B929BA29AA2A732A760374
:10037800031DBF29C029C329C3309F05AA2A1F0806
:10038800C33904389F00AA2A02307606031DCD29F6
:10039800CE29D129C3309F05AA2A1F08C339083896
:1003A8009F00AA2A03307606031DDB29DC29DF29F2
:1003B800C3309F05AA2A1F08C3390C389F00AA2AF0
:1003C80004307606031DE929EA29ED29C3309F0583
:1003D800AA2A1F08C33910389F00AA2A05307606B2
:1003E800031DF729F829FB29C3309F05AA2A1F08EE
:1003F800C33914389F00AA2A06307606031D052A39
:10040800062A092AC3309F05AA2A1F08C3391838A3
:100418009F00AA2A07307606031D132A142A172AD2
:10042800C3309F05AA2A1F08C3391C389F00AA2A6F
:1004380008307606031D212A222A252AC3309F0563
:10044800AA2A1F08C33920389F00AA2A093076062D
:10045800031D2F2A302A332AC3309F05AA2A1F08D2
:10046800C33924389F00AA2A0A307606031D3D2A7C
:100478003E2A412AC3309F05AA2A1F08C3392838B3
:100488009F00AA2A0B307606031D4B2A4C2A4F2AB6
:10049800C3309F05AA2A1F08C3392C389F00AA2AEF
:1004A8000C307606031D592A5A2A5D2AC3309F0547
:1004B800AA2A1F08C33930389F00AA2A0D307606A9
:1004C800031D672A682A6B2AC3309F05AA2A1F08BA
:1004D800C33934389F00AA2AC3309F05AA2A1F0CA3
:1004E800F300730C0F39F400F5017508003A03198D
:1004F8007E2AAA2A7408003A0319BB29013A03196B
:10050800C829033A0319D629013A0319E429073AF5
:100518000319F229013A0319002A033A03190E2A8A
:10052800013A03191C2A0F3A03192A2A013A031916
:10053800382A033A0319462A013A0319542A073A72
:100548000319622A013A0319702AAA2A3130F300E2
:10055800F30BAC2AAF2A831203139F1408008312EB
:100568000313AC01F41FB92ABA2AC12AF309F40902
:10057800F30A0319F40AAC01AC0AF61FC42AC52A07
:10058800CE2AF509F609F50A0319F60A0130F7002B
:100598007708AC06AD01AE01730874040319D52AB7
:1005A800D62A0D2BAB01AB0AE42A01300310F30D58
:1005B800F40DFF3E031DDA2A0130F7007708AB0778
:1005C800F41FE72AE82AD92A01300310AD0DAE0D31
:1005D800FF3E031DE92A74087602031DF52A7308F5
:1005E8007502031CF82AF92A002B7308F50274080F
:1005F800031CF603F6022D1401300310F40CF30C5F
:10060800FF3E031D012B0130AB02031D0C2B0D2BEC
:10061800E82A2C080319112B122B172BAD09AE0948
:10062800AD0A0319AE0A2E08F4002D08F3000800DD
:1006380083120313B2003208AF002F08B3006430EE
:10064800F3000030F4003308AF00B0012F08F500C4
:100658003008F6000A128A11B3220A128A117308A6
:1006680083120313B1003108F8009C30AF002F0843
:10067800F30078080A128A118F250A128A11831248
:1006880003133307B0003008B3000A30F30000301A
:10069800F4003308AF00B0012F08F5003008F60069
:1006A8000A128A11B3220A128A11730883120313D9
:1006B800B1003108F900F630AF002F08F3007908CF
:1006C8000A128A118F250A128A118312031333071B
:1006D800B0003008B3003308AF002F08FA007808DC
:1006E800303EAF002F08F8007908303EAF002F08E1
:1006F800F9007A08303EAF002F08FA00080083128C
:100708000313AD002D03031D8A2B8B2BB02B770809
:100718007F3EAB002B08B0003008AB00043003105C
:10072800AB0CFF3E031D932B2B08AC002C08AE002E
:1007380030080F39AB002B08AF002E080A128A11B7
:1007480075250A128A11831203132F080A128A11B7
:1007580075250A128A11DA2B02302D06031DB52BD6
:10076800B62BDA2B7708BF3EAB002B08B000300859
:10077800AB0004300310AB0CFF3E031DBE2B2B084F
:10078800AC002C08AE003008F039AB002B08AF00E5
:100798002E080A128A1175250A128A118312031368
:1007A8002F080A128A1175250A128A1108000030CA
:1007B8000A128A11BB250A128A111A3083120313EE
:1007C800AC00F730AB00AB0BE72BAC0BE72BEC2BFB
:1007D80030300A128A1175250A128A1107308312DD
:1007E8000313AC007C30AB00AB0BF82BAC0BF82B35
:1007F800000030300A128A1175250A128A11413018
:1008080083120313AB00AB0B072C0A2C30300A12EF
:100818008A1175250A128A113C300A128A11752527
:100828000A128A1108300A128A1175250A128A11C9
:1008380001300A128A1175250A128A1106300A1225
:100848008A1175250A128A1108008316031789016F
:1008580003308800033083160313850007138717B6
:1008680088018901831203138501860187018801A4
:100878008901F30103300A128A1115250A128A1117
:10088800831603130F140F178F160F12C43081002D
:100898008B170B178B160B110C17831203130C13E2
:1008A8008C12831603138C120C1218139816181234
:1008B800181583120313181318169817831603179D
:1008C8008711193083160313990001309A00080024
:1008D80004308A000408840A8207003456344134FC
:1008E8004C344F345234203444344534203450345A
:1008F8004F345434203431343A3420340D340034F5
:10090800563441344C344F34523420344434453412
:10091800203450344F345434203432343A34203470
:100928000D340034533431343A34203420342034F4
:10093800533432343A34203420342034533433346A
:100948003A34003420342034203400342E34003437
:100958000B1DAF2CB02CB12C0B11831203130C1FE1
:10096800B62CB72CCA2C1F0CF000700C0F39003AAB
:10097800031DBF2CC02CC52C1E08F0007008A10058
:10098800C92C1E08F0007008A0000C138C1ECD2C7A
:10099800CE2CE52C1A08F0007008A2002B30220695
:1009A800031DD72CD82CDC2C0130F0007008A707C9
:1009B8002D302206031DE12CE22CE42C0130A70285
:1009C8008C1272088A00710E8300FE0E7E0E0900DA
:1009D80083120313AD00AB01AC01072D2B082D07C3
:1009E80084000A128A116C240A128A110A128A11C6
:1009F80058250A128A11013083120313AB07031812
:100A0800AC0A0030AC072B082D0784000A128A11A3
:100A18006C240A128A11003A031D132D142DF22C8E
:100A28000800F50075088316031788008901750802
:100A3800831603138500C330831203139F052130E7
:100A4800F400F40B252D831203131F141F083F39DC
:100A580040389F00730C83160313031C9F1303185D
:100A68009F171F129F120C170800F7007030F40030
:100A78007408F500452D76080A128A11B1250A1264
:100A88008A110130F707FF30770784000A128A11AC
:100A98006C240A128A11F4007408F6007608031D03
:100AA800562D572D3F2D0800F5007508F4007408E1
:100AB800F6007608F4007408F7008312031309148B
:100AC80077080A128A11BB250A128A1183120313A6
:100AD80089140D30F400F40B6F2D83120313891061
:100AE8000800F60083120313091076080A128A1107
:100AF800BB250A128A118312031389140630F500E4
:100B08003030F400F40B862DF50B862D000083128F
:100B1800031389100800F600F501761C942D952D15
:100B2800992D7308F4007408F5070310F30D0310EA
:100B3800F60C7608031DA12DA22D912D750808002D
:100B480000300A128A1175250A128A1101300A1218
:100B58008A1175250A128A110800F30083120313FB
:100B68000C1EB72DB82DB22D730899000800F3009C
:0A0B780073088312031388000800BD
:04400E00D420FF3F7C
:00000001FF
