:060000000A128A110C280F
:10000800FE00030EF1000A08F2000A128A111528F0
:100018000A128A110F28F701F80183010A128A11BE
:100028009228831203138C1D1A281B287128141276
:10003800141B1F2820282428941F232824282B2811
:100048001308F0007008F80014139413141683169C
:100058000313941A302831284D28141934283528C8
:100068004D28831203131308F0007008F8008C1150
:10007800141683160313141C422843283D288312A0
:10008800031313088800A630F000F00B492800007D
:100098006E28941A502851286E28141D5428552863
:1000A8006E28831203131308F0007008F8008316F3
:1000B8000313141083120313060893001416A630B2
:1000C800F000F00B652800008316031314186D2840
:1000D8006E286828831203138C1172088A00710E27
:1000E8008300FE0E7E0E0900F300730883160313C7
:1000F8009300363083120313940080308316031361
:10010800940001309100871507168B170B1783127F
:1001180003138C11831603138C1508000A128A1115
:10012800AB200A128A118312031386090630F600DF
:100138001330F500AD30F400F40BA028F50BA0281F
:10014800F60BA028A72897280A128A110C288316CC
:100158000317880189018316031386018801831216
:1001680003138601880150300A128A1178200A1276
:040178008A110800E0
:04400E00D620FF3F7A
:00000001FF
