:020000040000FA
:060000000A128A110C280F
:10000800FE00030EF1000A08F2000A128A111628EF
:100018000A128A110F28F801F901FA0183010A125C
:100028008A111F29831203130C1F1B281C282C2834
:100038001F0CF000700C0F39003A031D24282528E6
:100048002B281E0886001E08F0007008F9000C1303
:100058008C1D2F2830288B281412141B342835287F
:100068003928941F3828392840281308F0007008C8
:10007800F80014139413141683160313941A4528BE
:1000880046286928141949284A286928831203131D
:100098001308F0007008F8008C1114168316031367
:1000A800141C572858285228831203131308F000E9
:1000B8007008F9005330F000F00B60288312031326
:1000C8001308F0007008FA008928941A6C286D2823
:1000D8008928141D7028712889288312031313088E
:1000E800F0007008F80083160313141079088312BF
:1000F8000313930014165330F000F00B8128831675
:100108000313141888288928832883128C117208ED
:100118008A00710E8300FE0E7E0E0900F500E028AD
:10012800C330831203139F052130F300F30B9A2881
:10013800831203131F139F131F14831603139F1394
:100148009F121F12F628C330831203139F05213014
:10015800F300F30BAD28831203131F179F131F140B
:10016800831603139F139F121F12F628C33083129E
:1001780003139F052130F300F30BC02883120313E8
:100188001F139F171F14831603139F139F121F1209
:10019800F628C330831203139F052130F300F30BB5
:1001A800D328831203131F179F171F1483160313D3
:1001B8009F139F121F12F6287508F300F4017408A4
:1001C800003A0319E828F6287308003A0319942816
:1001D800013A0319A728033A0319BA28013A03195F
:1001E800CD28F628080001308316031788008316E7
:1001F800031305148601071287118312031385015F
:100208008601870101300A128A1192200A128A1186
:10021800831603130F140F178F160F128B170B1754
:100228000C17831203130C1350300A128A113A2147
:100238000A128A1108000A128A11F7200A128A1172
:10024800831203139F1829292A2924298230F700A9
:10025800DD30F600F60B2E29F70B2E2933298312F1
:1002680003139F1424290A128A110C28F300730817
:1002780083160313930036308312031394008030DF
:1002880083160313940001309100871507168B1706
:100298000B17831203138C11831603138C15080094
:04400E00D420FF3F7C
:00000001FF
