:020000040000FA
:060000000A128A110C280F
:10000800FE00030EF2000A08F3000A128A1176288D
:100018000A128A110F28F601F701F801F901830184
:100028000A128A11122983120313A0005F28C33011
:100038009F052130F400F40B1F28831203131F13AC
:100048009F131F14831603139F139F121F127528E3
:10005800C3309F052130F400F40B302883120313BA
:100068001F179F131F14831603139F139F121F122A
:100078007528C3309F052130F400F40B4128831202
:1000880003131F139F171F14831603139F139F1225
:100098001F127528C3309F052130F400F40B522835
:1000A800831203131F179F171F14831603139F131D
:1000B8009F121F1275282008F400F5017508003AF0
:1000C8000319672875287408003A03191B28013A90
:1000D80003192C28033A03193D28013A03194E281D
:1000E80075280800831203130C1F7B287C289D2881
:1000F8001F0CF100710C0F39003A031D8428852864
:100108008E281F08C33904389F001E08F1007108A3
:10011800F8009D281F0CF100710C0F39013A031DDE
:10012800962897289D28C3309F051E08F10071085E
:10013800F9000C138C1DA128A228C1280A128A11C3
:100148002D210A128A11F1007108F70079080A12A4
:100158008A113D210A128A110A128A112D210A12C6
:100168008A11F1007108F60078080A128A113D21F7
:100178000A128A11831203138C1173088A00720EF3
:100188008300FE0E7E0E09000330831603178800D5
:100198008316031305148514851286018711071623
:1001A800871283120313850186018701880189015B
:1001B8008B170B178C11831603138C1583120313DB
:1001C800A001A101A20124300A128A11F4200A1206
:1001D8008A1101300A128A1117200A128A1108009E
:1001E800F400831603138712741DFB28FC280429C6
:1001F80083120313220883160313940087150C290E
:100208008312031320082204831603139400871112
:100218007408831203132104940008000A128A1137
:10022800C8200A128A1101308312031386029F180C
:100238001E291F291729203083120313A300A30B9B
:1002480023290000831203139F1417290A128A1105
:100258000C280A128A1136210A128A1183120313F2
:100268001308080083160313141C3B293C2936295C
:0E0278000800F00070088312031393000800C2
:04400E00D420FF3F7C
:00000001FF
