:020000040000FA
:060000000A128A110C280F
:10000800FE00030EF6000A08F7000A128A11FA2801
:100018000A128A110F280A128A1114210A128A1147
:10002800A0000A128A1115210A128A11A1000A12C7
:100038008A1116210A128A11A2000A128A1117219E
:100048000A128A11A300F001F101F201F301F4018F
:1000580083010A128A1130280A128A11D3200A123F
:100068008A118312031387193A283B284828F30179
:10007800F30AFA01FA0AF901F90A85018601071358
:1000880087132308880063287303031D4C284D2811
:100098006328C8307406031D522853285828013095
:1000A800F8007808F007F4010A128A11A9200A1248
:1000B8008A1163280A128A116D200A128A11831282
:1000C80003130719682869285E2835280A128A1137
:1000D8000C2883120313071E722873287628F2014E
:1000E800F20A81287203031D7A287B288128F201ED
:1000F8007A0885000310FA0D0713871E84288528BF
:100108008828F101F10A93287103031D8C288D2892
:100118009328F101790886000310F90D8713851FCC
:10012800962897289E280711071207172108880084
:10013800F301A828861FA128A228A82807110712BA
:100148008717220888009C280800BD2822088800F4
:10015800071487100711D228210888000710871470
:100168000711D22820088800071087100715F0010A
:10017800D228700883120313A400A5012508003AA9
:100188000319C728D2282408013A0319AA28033AD0
:100198000319B028013A0319B628D22808001F30DD
:1001A80083160317880089018316031385018601C6
:1001B800383087008801890183120313850186017D
:1001C8008701880189018530831603138100643013
:1001D8008312031381008B170B178B160B11FA016F
:1001E800FA0AF901F90A2308880008000B1DFD28FE
:1001F800FE280D290B116430831203138100730349
:10020800031D072908290C290130F5007508F40792
:100218000B1177088A00760E8300FE0E7E0E090009
:080228003F3406345B344F340F
:04400E00D420FF3F7C
:00000001FF
