:020000040000FA
:060000000A128A11F82F1C
:10083A008316031788018901831603130711871585
:10084A008610061188018312031385018601870128
:10085A0088018901831603130F140F178F160F16B9
:10086A008B170B17831203138E018F011008CF39D0
:10087A00103890001013901008000A128A111D24D3
:10088A000A128A11033083120313CA000830C900FE
:10089A007630C800C80B4F2CC90B4F2CCA0B4F2CF3
:1008AA000000831203134B08C800C9014808C50099
:1008BA004908C6000A128A1192240A128A1183125E
:1008CA0003134B08880005304B0203186D2C6E2C5D
:1008DA007A2C86140611033083120313C900973049
:1008EA00C800C80B762CC90B762C0530831203136B
:1008FA004B02031C812C822C472C861006150330D0
:10090A0083120313C9009730C800C80B8A2CC90B7D
:10091A008A2C472C0A128A11002883120313CB014E
:10092A008E018F010715053083120313C700C70B09
:10093A009C2C9F2C831203130711871DA52CA62C10
:10094A00A22C10148719AA2CAB2CA72C10100E0855
:10095A00F0000F08F100F201F30100300A128A11C7
:10096A0061250A128A11730883120313A7007208F9
:10097A00A6007108A5007008A4004230A3006B30DD
:10098A00A2004730A100AE30A0000A128A111B262D
:10099A000A128A11831203132308BD002208BC001D
:1009AA002108BB002008BA000A128A11E5240A129B
:1009BA008A11831203133A08C7004708CB000800BC
:1009CA000310831203133C0D3D0DBE003E08C40004
:1009DA004408031DF12CF22CFB2C0030BD00003022
:1009EA00BC000030BB000030BA00602D3A08BE00DF
:1009FA003B08BF003C08C0003D08C1001F3003107F
:100A0A00C10CC00CBF0CBE0CFF3E031D042D3E08DA
:100A1A00C2004208C300BC17FF30BA05FF30BB054D
:100A2A00FF30BC050030BD059630C402C41F1E2D20
:100A3A001F2D392D4408803A973E0318252D262D5F
:100A4A00272DF22C01300310BD0CBC0CBB0CBA0CC8
:100A5A00FF3E031D282D0130BE003E08C407031DBA
:100A6A00372D382D272D502D20304402031C3E2DC2
:100A7A003F2D4B2DF22C0130BE000310BA0DBB0DD9
:100A8A00BC0DBD0DBE0B422D0130C4024408031D2E
:100A9A004F2D502D402D43080319542D552D602DEF
:100AAA00BA09BB09BC09BD09BA0A0319BB0A031969
:100ABA00BC0A0319BD0A0800F80078080319662D54
:100ACA00672D7B2DF31F6A2D6B2D7B2D7009FA0084
:100ADA007109FB007209FC007309FD00FA0A031987
:100AEA00FB0A0319FC0A0319FD0A832D7308FD008A
:100AFA007208FC007108FB007008FA00730872049F
:100B0A0071047004031D8A2D8B2D942D0030F3007F
:100B1A000030F2000030F1000030F0001A2E96305A
:100B2A00F4007408F900A62D0130F4007408F907DE
:100B3A0001300310FD0CFC0CFB0CFA0CFF3E031DEC
:100B4A009E2DFE307D05031DAB2DAC2D992DC82D94
:100B5A000130F4007408F9070130FA07003003186D
:100B6A000130FB07003003180130FC07003003187E
:100B7A000130FD0701300310FD0CFC0CFB0CFA0CD4
:100B8A00FF3E031DC02DFF307D05031DCD2DCE2D4B
:100B9A00AD2DDA2D0130F9020130F4000310FA0DFF
:100BAA00FB0DFC0DFD0DF40BD32DFC1BDD2DDE2DF5
:100BBA00E42D023079020318E32DE42DCF2D7918A4
:100BCA00E72DE82DF02DFF30FA05FF30FB057F30C9
:100BDA00FC05FF30FD050310F90C7908F400F50156
:100BEA00F601F70118300310F40DF50DF60DF70DA7
:100BFA00FF3E031DF82D7408FA047508FB047608F5
:100C0A00FC047708FD04780803190C2E0D2E122E09
:100C1A00F31F102E112E122EFD177D08F3007C08EB
:100C2A00F2007B08F1007A08F0000800831203132F
:100C3A0027088039A8002808B1002708A800280733
:100C4A00A9002908B800A61F2B2E2C2E2D2E3814E9
:100C5A0038080319312E322E422E380A031D362E39
:100C6A00372E3F2E0030A7000030A6000030A50026
:100C7A000030A400A617A7014A2E0030A7000030B2
:100C8A00A6000030A5000030A40023088039A8007F
:100C9A002808B1062308A8002807A9002908B900CE
:100CAA00A21F582E592E5A2E3914390803195E2EAE
:100CBA005F2E6F2E390A031D632E642E6C2E0030B0
:100CCA00A3000030A2000030A1000030A000A2174B
:100CDA00A301772E0030A3000030A2000030A1004B
:100CEA000030A0002308220421042004031D7E2EC4
:100CFA007F2E982E0030A7000030A6000030A500F5
:100D0A000030A4008030A6047F30A7043108A80070
:100D1A002808A7042708A3002608A2002508A1007E
:100D2A002408A000F72F3808031D9C2E9D2EA62EFE
:100D3A000030A3000030A2000030A1000030A00063
:100D4A00F72F3808A800A9012908AB00390828029A
:100D5A00AA00031CAB032A087F3EB2002B08031823
:100D6A00013E003EB3002708B0002608AF00250860
:100D7A00AE002408AD000030A7000030A600003005
:100D8A00A5000030A4000030B7000030B6000030E3
:100D9A00B5000030B400B9011C2F39080319D62E4A
:100DAA00D72EF72E0130A8000310AD0DAE0DAF0DF2
:100DBA00B00DA80BD92E0130A8000310A40DA50D63
:100DCA00A60DA70DA80BE22EB71FEC2EED2EEE2EC8
:100DDA0024140130A8000310B40DB50DB60DB70DDB
:100DEA00A80BF02E23083002031D052F22082F021C
:100DFA00031D052F21082E02031D052F20082D0291
:100E0A00031C082F092F182F37172008AD022108B5
:100E1A00031C210FAE022208031C220FAF02230873
:100E2A00031C230FB0020130A8002808B9071A30A2
:100E3A003902031C212F222FD22E30082F042E0410
:100E4A002D040319292F2A2F492F3414492F013031
:100E5A00A8000310A40DA50DA60DA70DA80B2E2FF3
:100E6A00B71F382F392F3A2F24140130A800031046
:100E7A00B40DB50DB60DB70DA80B3C2FFF30B20758
:100E8A000318B30AFF30B307A61F4C2F4D2F2C2F80
:100E9A00B901B71F512F522F6E2FFF303405A8000A
:100EAA00FF303505A900FF303605AA007F30370527
:100EBA00AB002B082A04290428040319652F662F7E
:100ECA00692FB901B90A6E2F241C6C2F6D2F6E2F52
:100EDA00662F39080319722F732FA42F0130A40724
:100EEA00003003180130A507003003180130A607A7
:100EFA00003003180130A707271C842F852FA42F41
:100F0A002408A8002508A9002608AA002708AB007B
:100F1A000130AC002B0DAB0CAA0CA90CA80CAC0B25
:100F2A008F2F2B08A7002A08A6002908A500280841
:100F3A00A4000130B2070318B30A0030B30733081C
:100F4A00803AFF0080307F02031DAD2FFF3032024E
:100F5A00031CB02FB12FBF2FFF3083120313B2002F
:100F6A000030B3000030A7000030A6000030A50012
:100F7A000030A400831203133308803AFF00803044
:100F8A007F02031DCA2F013032020318CD2FCE2F44
:100F9A00DB2F83120313B201B3010030A700003024
:100FAA00A6000030A5000030A400B101831203138B
:100FBA003208A8002808B800381CE42FE52FE72FCC
:100FCA00A617EB2F7F30A8002808A6053808A80026
:100FDA000310280CA9002908A7003108A80028082E
:100FEA00A7048F2E080083120313CB01CC018301BF
:060FFA000A128A11422CCC
:04400E00D420FF3F7C
:00000001FF
