:020000040000FA
:100000000A128A11F32FFF0000308A007F0882074E
:0800100008280A128A11C72812
:10016400F00070088312031393000800831603132E
:10017400141CBD28BE28B828080064008001840A25
:100184000406031900340406C028831203130C1E4A
:10019400CC28CD28C7287008990008000A128A11B3
:1001A400B8200A128A118312031313080800F100FD
:1001B400F0013A3071020318E028E128E9283030D0
:1001C4007102031CE628E728E928F001F00A700C04
:1001D4000800F300831603138712731DF228F32813
:1001E400F728720894008715FB287008720494009D
:1001F4008711730871048312031394000800831297
:100204000313D8010130D6005608D9005630D60061
:100214005608D7005408C7005508C8005730D60000
:100224005608C90058300A128A110B250A128A117D
:10023400080067308316031399009A018316031785
:1002440087158316031318151812831203139817AE
:10025400181683160313181398168312031318130E
:100264008B170B170C128C12080003308312031324
:100274001A02031C3E293F294829B530D40088308E
:10028400D5000A128A1101210A128A11831203135A
:100294008C1E4D294E2948291A08D03EDA005A08E6
:1002A400A20008000630831203131A02031C5B2900
:1002B4005C2965295030D4008830D5000A128A118F
:1002C40001210A128A11831203138C1E6A296B29D5
:1002D40065291A08D03EDA005A08A1000800063041
:1002E400831203131A02031C7829792982295030B6
:1002F400D4008830D5000A128A1101210A128A1109
:10030400831203138C1E8729882982291A08D03E58
:10031400DA005A08A000080083120313DA005A080E
:10032400D8005808DB00DC015630D8005808D90042
:100334005408C7005508C8005930D8005808C900E7
:100344005B300A128A110B250A128A1183120313D5
:100354005B088400831380010800F401F501701C1C
:10036400B429B529BB297208F4070318F50A7308E0
:10037400F50701300310F20DF30DFF3E031DBC29F8
:1003840001300310F10CF00CFF3E031DC32970086B
:100394007104031DCE29CF29B1297508F100740811
:1003A400F0000800831603138601071587158716C6
:1003B40088010713871783120313850186018701B8
:1003C40088018901831603130F140F178F160F1258
:1003D400F001F101F20120300A128A11EB200A1215
:1003E4008A110A128A111B210A128A110800F200CA
:1003F4007208F1007108F300032A0130F10071085A
:10040400F3077308840083130008031D0A2A0B2AC8
:10041400FF29142A0130F1007108F3070130F100BB
:100424007108F007700884000008F1007308840064
:10043400710880000008031D202A212A0C2A0800C4
:10044400780879040319272A282A572AFD01FD0A66
:10045400362A01300310F80DF90DFF3E031D2C2A36
:100464000130FC007C08FD07F91F392A3A2A2B2A9F
:1004740079087B02031D402A78087A02031C432A68
:10048400442A4A2A7808FA027908031CFB03FB026F
:1004940001300310F90CF80CFF3E031D4B2A013008
:1004A400FD02031D562A572A3A2A7B08F9007A08C6
:1004B400F8000800F501F601700871040319632AB5
:1004C400642A9B2AF701F70A722A01300310F00DFF
:1004D400F10DFF3E031D682A0130F4007408F7078C
:1004E400F11F752A762A672A01300310F50DF60DDF
:1004F400FF3E031D772A71087302031D832A7008C7
:100504007202031C862A872A8E2A7008F202710856
:10051400031CF303F302751401300310F10CF00C07
:10052400FF3E031D8F2A0130F702031D9A2A9B2ADE
:10053400762A7608F1007508F0000800F601F31F2A
:10054400A42AA52AAC2AF209F309F20A0319F30A28
:10055400F601F60AF11FAF2AB02AB52AF009F1090B
:10056400F00A0319F10A700871040319BA2ABB2AA4
:10057400EA2AF501F50AC92A01300310F00DF10D3C
:10058400FF3E031DBF2A0130F4007408F507F11F74
:10059400CC2ACD2ABE2A71087302031DD32A7008FF
:1005A4007202031CD62AD72ADD2A7008F2027108C7
:1005B400031CF303F30201300310F10CF00CFF3EB3
:1005C400031DDE2A0130F502031DE92AEA2ACD2A99
:1005D40076080319EE2AEF2AF42AF209F309F20A3B
:1005E4000319F30A7308F1007208F0000800F030F0
:1005F40083120313D4008830D5000A128A11012112
:100604000A128A11413083120313DB00ED30DA0041
:10061400DA0B0A2BDB0B0A2B0F2B8312031326088E
:100624009900413083120313DB00ED30DA00DA0B5A
:10063400192BDB0B192B1E2B033083120313D4004D
:100644008930D5000A128A1101210A128A11413017
:1006540083120313DB00ED30DA00DA0B2F2BDB0BF4
:100664002F2B342B83120313250899004130831256
:100674000313DB00ED30DA00DA0B3E2BDB0B3E2BF1
:10068400432B83120313240899004130831203136C
:10069400DB00ED30DA00DA0B4D2BDB0B4D2B522B4C
:1006A400B33083120313D4008830D5000A128A11A0
:1006B40001210A128A110800F83083120313D400AE
:1006C4008830D5000A128A1101210A128A11413098
:1006D40083120313DB00ED30DA00DA0B6F2BDB0B34
:1006E4006F2B742B83120313260899004130831255
:1006F4000313DB00ED30DA00DA0B7E2BDB0B7E2BF1
:10070400832B033083120313D4008930D5000A12DB
:100714008A1101210A128A11413083120313DB006A
:10072400ED30DA00DA0B942BDB0B942B992B83122C
:10073400031325089900413083120313DB00ED30C5
:10074400DA00DA0BA32BDB0BA32BA82B83120313E6
:1007540024089900413083120313DB00ED30DA00E2
:10076400DA0BB22BDB0BB22BB72BB2308312031391
:10077400D4008830D5000A128A1101210A128A1184
:100784000800FC006430F0000030F1007C08F9003F
:10079400FA017908F2007A08F3000A128A1129246E
:1007A4000A128A117008FB007B0883120313A60047
:1007B4006430F0000030F1007C08F900FA01790897
:1007C400F2007A08F3000A128A11A0220A128A118E
:1007D4007008FB007B0883120313A3000A30F000A7
:1007E4000030F1002308F900FA017908F2007A08D0
:1007F400F3000A128A1129240A128A117008FB00D4
:100804007B0883120313A5000A30F0000030F100C6
:100814002308F900FA017908F2007A08F3000A12B1
:100824008A11A0220A128A117008FB007B08831225
:100834000313A4003030F9007908A6073030F9001A
:100844007908A5073030F9007908A4070800F601F3
:10085400F11F2D2C2E2C352CF009F109F00A031967
:10086400F10AF601F60AF31F382C392C422CF2094E
:10087400F309F20A0319F30A0130F4007408F606C6
:10088400F701F801700871040319492C4A2C812CD2
:10089400F501F50A582C01300310F00DF10DFF3E5F
:1008A400031D4E2C0130F4007408F507F11F5B2C76
:1008B4005C2C4D2C01300310F70DF80DFF3E031D89
:1008C4005D2C71087302031D692C70087202031CED
:1008D4006C2C6D2C742C7008F2027108031CF30349
:1008E400F302771401300310F10CF00CFF3E031DEA
:1008F400752C0130F502031D802C812C5C2C7608AC
:100904000319852C862C8B2CF709F809F70A03198F
:10091400F80A7808F1007708F0000800FD00962C2A
:100924000130F8007808FD077D0884002030831327
:10093400000603199E2C9F2C922C7D0884000930FC
:1009440000060319A62CA72C922CFB01FC01FA012A
:100954007D0884002D300006031DB12CB22CBB2C65
:100964000130F8007808FA070130F8007808FD072C
:10097400E92C7D0884002B300006031DC22CC32CF7
:10098400E92C0130F8007808FD07E92C7D08840083
:100994007C08F1007B08F0000A30F2000030F3001C
:1009A4000A128A11AF210A128A11831300087007F0
:1009B400F8000030031801307107F9007808D03EC0
:1009C400FB0079080318013EFF3EFC00C32C7D08A0
:1009D400840000080A128A11D9200A128A11031805
:1009E400F42CF52CC82C7A080319F92CFA2C062DB2
:1009F4007B09F8007C09F900F80A0319F90A780858
:100A0400F6007908F7000A2D7C08F7007B08F60049
:100A1400080083120313D300362E2530520603191F
:100A2400142D152D3B2D530A84008313000803193C
:100A34001C2D1D2D2C2D5208CA004A08F000530A03
:100A4400840000080A128A1103200A128A118312F0
:100A540003130E2D5208CA005308840000088400B2
:100A64004A0880000130CA00530884004A088007FD
:100A74000E2DCE014808CB004708CA00C70A031947
:100A8400C80A4B08FF004A0884000A128A1500208D
:100A94000A128A11D200CC00CD014D08003A031984
:100AA400542D362E4C08003A0319502E643A03197B
:100AB4005F2D0D3A03195F2D362E490884008313E8
:100AC4000008CA00023080074A0884000008D000E9
:100AD400840A0008D100D11F702D712D7A2D0330A6
:100AE400CA004A08CE04D009D109D00A0319D10A90
:100AF400D201D20A5208CA004A07123E8400883042
:100B04000318013EFF000A128A1500200A128A11F6
:100B1400CB000A128A1500200A128A11CC004C0854
:100B24005102031D972D4B08500203189A2D9B2D3B
:100B34009C2DA62D0130CA004A08D2070530520662
:100B4400031DA52DA62D7C2D4E0803390319AB2DAD
:100B5400AC2DCF2D530A8400831300080319B32D41
:100B6400B42DC12D2D30CA004A08F000530A840068
:100B740000080A128A1103200A128A11CF2D2D307F
:100B8400CA0053088400000884004A088000013029
:100B9400CA00530884004A088007831203135208CA
:100BA400CA004A08CF002B2E0A30F8000030F900A2
:100BB4004F08CA004A07123E840088300318013ED9
:100BC400FF000A128A1500200A128A11F0000A1284
:100BD4008A1500200A128A11F1005108F300500806
:100BE400F2000A128A115C220A128A117108FB00AF
:100BF4007008FA000A128A1122220A128A1178084D
:100C0400303E83120313CB004B08D200530A8400F6
:100C14008313000803190F2E102E1D2E5208CA002C
:100C24004A08F000530A840000080A128A110320BB
:100C34000A128A112B2E5208CA0053088400000895
:100C440084004A0880000130CA00530884004A081E
:100C54008007FF3083120313CA004A08CF074F0AE4
:100C6400031D352E362ED62D831203134808CB00D0
:100C74004708CA00C70A0319C80A4B08FF004A08F4
:100C840084000A128A1500200A128A11CC004C082A
:100C9400D2005208031D4F2E502E0F2DC701C8013C
:100CA40008000A128A11D4210A128A11831203132A
:100CB4000711C73083120313DD00602EDD0B5F2E96
:100CC400632E0A300A128A11B2200A128A110A12F9
:100CD4008A11D0200A128A1183120313DD005D08E1
:100CE400A800C73083120313DD00782EDD0B772EA6
:100CF4007B2E0A300A128A11B2200A128A110A12B1
:100D04008A11D0200A128A1183120313DD005D08B0
:100D1400A700C73083120313DD00902EDD0B8F2E46
:100D2400932E831203130715413083120313DE003D
:100D3400ED30DD00DD0B9C2EDE0B9C2EA12E7730DA
:100D440083120313D4008830D5000A128A110121BA
:100D54000A128A118312031328080A128A11C32360
:100D64000A128A110A128A11F9220A128A114130CE
:100D740083120313DE00ED30DD00DD0BBF2EDE0B2E
:100D8400BF2EC42E8312031327080A128A11C32309
:100D94000A128A110A128A115E230A128A11413038
:100DA40083120313DE00ED30DD00DD0BD72EDE0BE6
:100DB400D72EDC2E1C3083120313D4008830D500C8
:100DC4000A128A1101210A128A11831203138C1E3A
:100DD400EC2EED2EE72E1A08D03EDD005D08A200B1
:100DE400F82E0A128A1137210A128A11333083121B
:100DF40003131A020318FF2E002FF32ED330D4004E
:100E04008830D5000A128A1101210A128A1183122C
:100E140003138C1E0E2F0F2F092F1A08D03EDD004E
:100E24005D08A10002302206031D192F1A2F282F56
:100E3400202F0A128A1154210A128A113630831281
:100E440003131A020318272F282F1B2F9730D400BF
:100E54008830D5000A128A1101210A128A118312DC
:100E640003138C1E362F372F312F1A08D03EDD0086
:100E74005D08A00002302206031D412F422F562F89
:100E840005302106031D472F482F562F4E2F0A12D7
:100E94008A1171210A128A113630831203131A023D
:100EA4000318552F562F492F0030D4008930D50010
:100EB4002208DD00DE015D08D6005E08D7003D3063
:100EC4000A128A118E210A128A1100308312031326
:100ED400D4008930D5002108DD00DE015D08D6008C
:100EE4005E08D70033300A128A118E210A128A1141
:100EF400003083120313D4008930D5002008DD00AC
:100F0400DE015D08D6005E08D70029300A128A1176
:100F14008E210A128A11333083120313DD005D0817
:100F2400F0003D300A128A11F9210A128A1129307F
:100F340083120313DD005D08F0003D300A128A11AC
:100F4400F9210A128A113D300A128A1190240A12D8
:100F54008A11770883120313E0007608DF005F0824
:100F64000A128A11C3230A128A11823083120313CC
:100F7400DE00DD30DD00DD0BBD2FDE0BBD2F831267
:100F8400031326089900823083120313DE00DD3038
:100F9400DD00DD0BCB2FDE0BCB2F831203132508D3
:100FA4009900823083120313DE00DD30DD00DD0B97
:100FB400D92FDE0BD92F8312031324089900823012
:100FC40083120313DE00DD30DD00DD0BE72FDE0BC3
:100FD400E72F831203135F088800582E0A128A1120
:100FE400002883132030840047300A128A11BF205E
:100FF4000A128A1183010A128A11532EFF1B0A282E
:1010040083137F1883170008840A0319FF0A080052
:101014007F087F398A000408840A0319FF0A8200C2
:10102400013400340A34003464340034E8340334C2
:101034001034273449346E3467347234653473346D
:101044006134723420346C34613420346334653454
:101054006E34743465346E346134203464346534ED
:10106400733465346134643461342C34203473341F
:10107400693420346534733420343C3431343034AE
:101084003034203463346F346C346F3463346134FB
:101094007234203430342E340D34003449346E34F8
:1010A400743472346F34643475347A346334613430
:1010B400203475346E342034763461346C346F34B7
:1010C400723420346D3465346E346F3472342034A9
:1010D4006F34203469346734753461346C342034AB
:1010E4006134203435340D340034203456346134C2
:1010F4006C346F3472342034613463347434753432
:1011040061346C3420346434653420346C346F348A
:101114007334203476346F346C34743461346A3408
:10112400653473343A342034003449346E346734CB
:101134007234653473346134723420346C34613401
:10114400203475346E346934643461346434203446
:1011540064346534733465346134643461342E34F6
:101164000D340D34003449346E34743472346F34B5
:10117400643475347A3463346134203475346E34B1
:101184002034763461346C346F34723420346434F3
:1011940065342034303420346134203432340D3416
:1011A400003449346E3467347234653473346134D2
:1011B400723420346C3461342034643465346334E0
:1011C40065346E3461342034643465347334653486
:1011D4006134643461342E340D3400340D342A34D3
:1011E4002034563431343A34203400340D342A3423
:1011F4002034563432343A342034003425346434C0
:0612040000342E3400341A
:04400E00D420FF3F7C
:00000001FF
